:100000000C943A000C9457000C9457000C94570031
:100010000C9457000C9457000C9457000C94570004
:100020000C9457000C9457000C9457000C945700F4
:100030000C9457000C9457000C9457000C945700E4
:100040000C9457000C9457000C9457000C945700D4
:100050000C945700CE06B006B206B406B606B80633
:10006000BA06BC06BE06C006C206C406C606C80658
:10007000CA06CC0611241FBECFE5D8E0DEBFCDBF37
:1000800010E0A0E6B0E0EAE2F4E102C005900D92D3
:10009000AE39B107D9F721E0AEE9B0E001C01D9259
:1000A000A732B207E1F70E9459000C94130A0C948E
:1000B00000000E9463070E94BD07C1E00E94870004
:1000C0000E94BD07C09360000E94CE008091600036
:1000D0008130D1F3823031F40E94DD0180916000E3
:1000E0008230D1F380916000833031F40E94B302FA
:1000F000809160008330D1F3809160008430F1F60C
:100100000E94AB01809160008430D1F3D7CFECE046
:10011000F1E08CE191E011928E179F07E1F7ECEA94
:10012000F0E08CE091E0108211821282138214823E
:1001300015821682178238968E179F07A1F7ECE179
:10014000F1E087E291E011928E179F07E1F710929C
:10015000A3001092A2001092A1001092A40010928D
:10016000A5001092A6001092A7001092A80010926D
:10017000A9001092AA001092AB0008958A3058F49A
:10018000282F30E040E050E060E070E080E090E058
:100190000E94C10708950E9472070895CF930E949C
:1001A000D006C82F8D3019F4109260001BC0E0916A
:1001B000A100F0E0E45FFE4F80830E94BE008091CA
:1001C000A1008F5F8093A1002FE58AEE90E021507F
:1001D00080409040E1F700C00000CD3301F782E09D
:1001E00080936000CF9108952F923F924F925F923B
:1001F0006F927F928F929F92AF92BF92CF92DF9237
:10020000EF92FF920F931F93CF93DF93CDB7DEB79B
:100210002D970FB6F894DEBF0FBECDBF20919F0083
:10022000222309F46DC010929F00662309F44DC08B
:1002300021E02D8701C01D866A831C01260E311C1A
:100240003C862B86A12CB12CC12CD12CE12CF12C7D
:1002500000E010E01982EB85FC852290FC87EB879B
:10026000422C512C612C712C69818AE00E9402077A
:10027000A30192010E9485081B012C01612C712CA5
:1002800043016B833C824D825E826F8278868986D1
:100290009A86262F332D442D552D60E070E080E0A6
:1002A00090E00E94D609A22EB32EC42ED52EE62EA3
:1002B000F72E082F192F29812F5F29832A802215D5
:1002C00050F23D84311009C025C0A12CB12CC12CA5
:1002D000D12CE12CF12C00E010E02A2D3B2D4C2DEF
:1002E0005D2D6E2D7F2D802F912F0E948F09A22EC4
:1002F000B32EC42ED52EE62EF72E082F192F0AC0A6
:10030000611199CFA12CB12CC12CD12CE12CF12C55
:1003100000E010E02A2D3B2D4C2D5D2D6E2D7F2D04
:10032000802F912F2D960FB6F894DEBF0FBECDBF54
:10033000DF91CF911F910F91FF90EF90DF90CF90C1
:10034000BF90AF909F908F907F906F905F904F90F5
:100350003F902F90089560E081E00E94A6072091D1
:10036000A4003091A5004091A6005091A700609193
:10037000A8007091A9008091AA009091AB000E9402
:10038000C1070E94D0068D30E1F781E080936000C4
:100390000895CF93DF93EC0160E081E00E94A6070F
:1003A000CE010E9490070E94D0068D30E1F785E0D3
:1003B00080936000DF91CF910895CF92DF92EF920A
:1003C000FF920F931F93CF93DF93CDB7DEB7609764
:1003D0000FB6F894DEBF0FBECDBFFE01319680E1AF
:1003E000DF011D928A95E9F780910C0196ED980F37
:1003F000923030F08D3271F0853221F010E01DC066
:100400008D3241F081E690E00E94C90181E0809345
:1004100060009AC080910D0196ED980F923050F0D7
:10042000877F853249F081E08093A00080939F0010
:1004300011E003C010E001C010E08091A10088230A
:1004400009F479C060E001E0E12EF12CF701E45FEE
:10045000FE4F80818A3040F09091A000911104C03D
:1004600090919E00992369F0E1E0F0E0EC0FFD1F10
:10047000E60FF11D80836F5F1092A00010929E0026
:1004800052C096ED980F923038F0982F977F9532A2
:1004900019F08D3309F040C09091A200E92FF0E0EF
:1004A000E45EFE4F80839F5F9093A200C090A30004
:1004B000D12CCE0101960E94F400F601EE0FFF1F31
:1004C000EE0FFF1FEE0FFF1FE455FF4F2083318318
:1004D0004283538364837583868397838091A300CB
:1004E0008F5F8093A300F701E45FFE4F81818D321F
:1004F00031F5112349F000939E0000939F001F5F88
:1005000060E011C0853271F48FE690E00E94C9016D
:1005100085E08093600018C08D3029F481E08093DD
:10052000600012C060E01F5F8091A1008150809345
:10053000A100811189CF83E08093600005C096ED12
:10054000980F9230F8F6E0CF60960FB6F894DEBFC1
:100550000FBECDBFDF91CF911F910F91FF90EF9014
:10056000DF90CF9008958F929F92AF92BF92CF92DB
:10057000DF92EF92FF920F931F93CF93DF938091BF
:10058000A200833008F4CEC3A091A300A130F1F4FF
:10059000ECEAF0E080818093A40081818093A50043
:1005A00082818093A60083818093A70084818093B9
:1005B000A80085818093A90086818093AA00878105
:1005C0008093AB0084E080936000B2C3ECE1F1E083
:1005D00091818081981322C1A23008F49FC3809139
:1005E0001C018A3209F459C020F4853209F4D5C0BF
:1005F0000DC18B3221F08D3209F49AC007C11092DF
:10060000A4001092A5001092A6001092A7001092CC
:10061000A8001092A9001092AA001092AB00AA2381
:1006200009F4F8C0ECEAF0E0A150B0E0AA0FBB1F5B
:10063000AA0FBB1FAA0FBB1FAC54BF4FA12CB12CDC
:10064000C12CD12CE12CF12C00E010E02081318173
:1006500042815381648175818681978138960E9499
:10066000D609A22EB32EC42ED52EE62EF72E082F95
:10067000192FEA17FB0751F72093A4003093A50028
:100680004093A6005093A7006093A8007093A90020
:100690008093AA009093AB00BDC081E08093A4003A
:1006A0001092A5001092A6001092A7001092A80028
:1006B0001092A9001092AA001092AB00AA2309F48C
:1006C000A9C0CCEAD0E0A1508A2E912CD401AA0F67
:1006D000BB1FAA0FBB1FAA0FBB1FCD018C549F4F7E
:1006E0004C0121E030E040E050E060E070E080E06C
:1006F00090E0A880B980CA80DB80EC80FD800E810C
:100700001F8128960E94A608C815D90591F7209345
:10071000A4003093A5004093A6005093A7006093D7
:10072000A8007093A9008093AA009093AB0072C0B8
:10073000ECEAF0E02081318142815381648175814E
:1007400086819781E4EBF0E0A250B0E0AA0FBB1FD6
:10075000AA0FBB1FAA0FBB1FA454BF4FA080B1801C
:10076000C280D380E480F5800681178138960E948C
:10077000DF09EA17FB0791F72093A4003093A50047
:100780004093A6005093A7006093A8007093A9001F
:100790008093AA009093AB003DC0ECEAF0E020818A
:1007A0003181428153816481758186819781C4EB57
:1007B000D0E0A2508A2E912CD401AA0FBB1FAA0F01
:1007C000BB1FAA0FBB1FFD01E454FF4F4F01A880C0
:1007D000B980CA80DB80EC80FD800E811F81289665
:1007E0000E9401098C169D0691F72093A400309376
:1007F000A5004093A6005093A7006093A8007093B3
:10080000A9008093AA009093AB0004C08EE790E00B
:100810000E94C90184E0809360008AC2A23008F47B
:100820007DC28A3219F49B3271F42CC08B3231F4C0
:100830009A3209F456C09D3291F482C08D3231F45F
:100840009B32A9F4ACC0953271F4D8C0853209F05E
:100850005DC29A3209F401C19B3261F42DC1953217
:1008600009F054C258C19D3209F050C283C19A3276
:1008700029F4AFC19D3209F049C2E2C1953209F0B5
:1008800045C20DC2CCEAD0E0A884B984CA84DB8416
:10089000EC84FD840E851F85288139814A815B8126
:1008A0006C817D818E819F810E94A608A888B9886D
:1008B000CA88DB88EC88FD880E891F890E94D609CA
:1008C0002093A4003093A5004093A6005093A70066
:1008D0006093A8007093A9008093AA009093AB0046
:1008E00019C2CCEAD0E0A888B988CA88DB88EC882D
:1008F000FD880E891F89288539854A855B856C8529
:100900007D858E859F850E94A608A880B980CA80B3
:10091000DB80EC80FD800E811F810E94D609209330
:10092000A4003093A5004093A6005093A7006093C5
:10093000A8007093A9008093AA009093AB00EAC12D
:10094000ECEAF0E020853185428553856485758524
:1009500086859785A088B188C288D388E488F58881
:10096000068917890E94DF09A080B180C280D380E8
:10097000E480F580068117810E94D6092093A400A7
:100980003093A5004093A6005093A7006093A80061
:100990007093A9008093AA009093AB00BBC1ECEACE
:1009A000F0E02081318142815381648175818681AB
:1009B0009781A084B184C284D384E484F5840685BD
:1009C00017850E94DF09A088B188C288D388E4888F
:1009D000F588068917890E94D6092093A4003093D0
:1009E000A5004093A6005093A7006093A8007093C1
:1009F000A9008093AA009093AB008CC1CCEAD0E010
:100A0000A888B988CA88DB88EC88FD880E891F8988
:100A1000288539854A855B856C857D858E859F8592
:100A20000E940109A880B980CA80DB80EC80FD802B
:100A30000E811F810E94A6082093A4003093A50078
:100A40004093A6005093A7006093A8007093A9005C
:100A50008093AA009093AB005DC1CCEAD0E0A8845B
:100A6000B984CA84DB84EC84FD840E851F852881CB
:100A700039814A815B816C817D818E819F810E9459
:100A80000109A888B988CA88DB88EC88FD880E89A6
:100A90001F890E94A6082093A4003093A5004093CC
:100AA000A6005093A7006093A8007093A9008093BC
:100AB000AA009093AB002EC1CCEAD0E0A884B98400
:100AC000CA84DB84EC84FD840E851F8528813981EE
:100AD0004A815B816C817D818E819F810E940109A9
:100AE000A888B988CA88DB88EC88FD880E891F89A8
:100AF0000E94D6092093A4003093A5004093A6003D
:100B00005093A7006093A8007093A9008093AA0057
:100B10009093AB00FFC0CCEAD0E0A884B984CA842B
:100B2000DB84EC84FD840E851F85288139814A8110
:100B30005B816C817D818E819F810E940109A888E3
:100B4000B988CA88DB88EC88FD880E891F890E94D5
:100B5000D6092093A4003093A5004093A60050939B
:100B6000A7006093A8007093A9008093AA009093B7
:100B7000AB00D0C0CCEAD0E0A884B984CA84DB84BE
:100B8000EC84FD840E851F85288139814A815B8133
:100B90006C817D818E819F810E94A608A888B9887A
:100BA000CA88DB88EC88FD880E891F890E94DF09CE
:100BB0002093A4003093A5004093A6005093A70073
:100BC0006093A8007093A9008093AA009093AB0053
:100BD000A1C0CCEAD0E0A888B988CA88DB88EC88B4
:100BE000FD880E891F89288539854A855B856C8536
:100BF0007D858E859F850E94A608A22EB32EC42EC9
:100C0000D52EE62EF72E082F192F288139814A81FB
:100C10005B816C817D818E819F810E94DF092093A1
:100C2000A4003093A5004093A6005093A7006093C2
:100C3000A8007093A9008093AA009093AB006AC0AB
:100C4000CCEAD0E0A884B984CA84DB84EC84FD8437
:100C50000E851F85288139814A815B816C817D8168
:100C60008E819F810E940109A888B988CA88DB8883
:100C7000EC88FD880E891F890E94DF092093A4005B
:100C80003093A5004093A6005093A7006093A8005E
:100C90007093A9008093AA009093AB003BC0CCEA6C
:100CA000D0E0A888B988CA88DB88EC88FD880E89DE
:100CB0001F89288539854A855B856C857D858E856C
:100CC0009F850E940109A22EB32EC42ED52EE62E9A
:100CD000F72E082F192F288139814A815B816C8179
:100CE0007D818E819F810E94DF092093A400309333
:100CF000A5004093A6005093A7006093A8007093AE
:100D0000A9008093AA009093AB0004C080E990E012
:100D10000E94C90184E0809360000AC084E080934F
:100D2000600006C0A091A300A13009F055CC30CCE2
:100D3000DF91CF911F910F91FF90EF90DF90CF90B7
:100D4000BF90AF909F908F900895482F50E0FA0188
:100D50003197E031F10518F5E65DFF4F0C949508E9
:100D600088E0089589E0089585E2089584E0089573
:100D700085E0089586E008958AE2089581E0089567
:100D800082E0089583E008958DE208958DE008954E
:100D900080E008958DE308958BE2089587E008953B
:100DA000E0E1F0E060E070E0862F9F01062E02C0D7
:100DB000220F331F0A94E2F72ABB20952BBBC89B56
:100DC0000EC041E050E0942F29B330E0042E02C061
:100DD000359527950A94E2F720FD09C001C090E0FF
:100DE0008F5F990F990F890F0E94A50608954F5F95
:100DF0005F4F4430510539F76F5F7F4F64307105A5
:100E000099F6D0CF4F925F926F927F928F929F927E
:100E1000AF92BF92CF92DF92EF92FF92482E862E32
:100E2000912CA12CB12C81149104A104B104E1F006
:100E3000C12CD12C7601C39461E070E080E090E099
:100E4000512C612C712C9B01AC01C301B2010E9499
:100E500085082FEFC21AD20AE20AF20A8C149D0406
:100E6000AE04BF0480F704C061E070E080E090E071
:100E7000FF90EF90DF90CF90BF90AF909F908F90BA
:100E80007F906F905F904F90089590989198E9EFC0
:100E9000F0E03197F1F700C00000929AE9EFF0E03E
:100EA0003197F1F700C0000085BB89EF90E0019712
:100EB000F1F700C000009298E9EFF0E03197F1F708
:100EC00000C00000089581B3876081BB8FEF84BBB1
:100ED00088E30E9445078EE00E94450781E00E945A
:100EE00045070895909A9198E9EFF0E03197F1F76E
:100EF00000C00000929AE9EFF0E03197F1F700C0EE
:100F0000000085BB89EF90E00197F1F700C0000079
:100F10009298E9EFF0E03197F1F700C000000895F2
:100F20000F931F93CF93FC018081882359F08F0189
:100F3000C0E00E947207CF5FF801EC0FF11D8081C5
:100F40008111F7CFCF911F910F910895813041F01A
:100F500028F0823041F0833049F00AC0962F08C053
:100F600090E4960F05C090E1960F02C090E5960FB1
:100F7000892F80680E944507089581E00E944507F7
:100F800008952F923F924F925F926F927F928F922D
:100F90009F92AF92BF92CF92DF92EF92FF920F9308
:100FA0001F93CF93DF93CDB7DEB763970FB6F89457
:100FB000DEBF0FBECDBF298B3A8B842E752E662ED9
:100FC000572E482E392EFE01319680E1DF011D9209
:100FD0008A95E9F729893A89842DA0E00E94E809D9
:100FE0006CF40E948F09298B3A8B842E752E662E05
:100FF000572E482E392EB1E0BB8B01C01B8A992495
:10100000939401C09E2E22242A94290C0F2EFAE0DC
:10101000AF2EF02DB12CC12CD12CE12CF12C00E005
:1010200010E029893A89482D572D662D752D842D7C
:10103000932D0E94FF082A3048F4E1E0F0E0EC0F25
:10104000FD1FE20DF11D205D208308C0E1E0F0E00E
:10105000EC0FFD1FE20DF11D295C20830F2EFAE03D
:10106000AF2EF02DB12CC12CD12CE12CF12C00E0B5
:1010700010E029893A89482D572D662D752D842D2C
:10108000932D0E940109298B3A8B842E752E662E92
:10109000572E482E392EE1E0E90DA0E00E94E80924
:1010A00011F00CF0AFCF8B89882329F08DE2FE017F
:1010B000E90DF11D818381E0890DE1E0F0E0EC0FA5
:1010C000FD1FE80FF11D1082CE0101960E94030A58
:1010D000CE0101960E94900763960FB6F894DEBF8A
:1010E0000FBECDBFDF91CF911F910F91FF90EF9079
:1010F000DF90CF90BF90AF909F908F907F906F9038
:101100005F904F903F902F900895DB018F939F93B6
:101110000E949B08BF91AF91A29F800D911DA39F3C
:10112000900DB29F900D11240895EE0FFF1F0590B2
:10113000F491E02D09940E94F409A59F900DB49FAD
:10114000900DA49F800D911D11240895DF93CF93DE
:101150001F930F939A9DF02D219FF00D8B9DF00D05
:101160008A9DE02DF10D039FF00D029FE00DF11D12
:101170004E9DE00DF11D5E9DF00D4F9DF00D7F9396
:101180006F93BF92AF925F934F93D5010E94F40982
:101190008B01AC01D7010E94F409EB01E80FF91FA4
:1011A000D6010E94F6082F913F91D6010E94F409C2
:1011B000C60FD71FE81FF91FAF91BF910E94F60815
:1011C0002F913F910E94F409C60FD71FE81FF91F06
:1011D000D6010E94F409E60FF71F9801BE01CF0166
:1011E00011240F911F91CF91DF9108950E94F4096E
:1011F000460F571FC81FD91F08F4319608956894E9
:1012000001C0E894F92FF12B12F00C943309A0E0FF
:10121000B0E0EDE0F9E00C94A509092E059422F464
:101220000E948F09112392F4F0E80F26FFEFE0945B
:10123000F09400951095B094C094D094A194BF0AF6
:10124000CF0ADF0AEF0AFF0A0F0B1F0B0E943E09AD
:1012500007FC0E948F09CDB7DEB7ECE00C94C10902
:10126000689401C0E8948F929F92CF93DF930E947D
:101270003E09DF91CF919F908F9008958824992403
:10128000F401E401B0E49F93AA279A158B049C040F
:10129000ED05FE05CF05D007A10798F4AD2FDC2F93
:1012A000CF2FFE2FE92D982C892E982F872F762F60
:1012B000652F542F432F322F2227B85031F7BF917B
:1012C00027C01B2EBF91BB27220F331F441F551F62
:1012D000661F771F881F991F881C991CEE1FFF1F10
:1012E000CC1FDD1FAA1FBB1F8A149B04EC05FD0544
:1012F000CE05DF05A007B10748F08A189B08EC0966
:10130000FD09CE09DF09A00BB10B21601A94E1F6AB
:101310002EF49401AF01BE01CD01000C089560953B
:1013200070958095909530954095509521953F4FBB
:101330004F4F5F4F6F4F7F4F8F4F9F4F08952F92AB
:101340003F924F925F926F927F928F929F92AF9255
:10135000BF92CF92DF92EF92FF920F931F93CF93A2
:10136000DF93CDB7DEB7CA1BDB0B0FB6F894DEBF39
:101370000FBECDBF09942A88398848885F846E845F
:101380007D848C849B84AA84B984C884DF80EE80A9
:10139000FD800C811B81AA81B981CE0FD11D0FB6B2
:1013A000F894DEBF0FBECDBFED0108952A0D3B1DA1
:1013B0004C1D5D1D6E1D7F1D801F911F08952A19F4
:1013C0003B094C095D096E097F09800B910B08955B
:1013D0000024A7FD00942A1730054005500560053C
:1013E0007005800590050895A29FB001B39FC001CC
:1013F000A39F700D811D1124911DB29F700D811D41
:101400001124911D0895DC01FC01672F7191772350
:10141000E1F7329704C07C916D9370836291AE17AF
:0A142000BF07C8F30895F894FFCF4A
:10142A0001496E76616C696420696E707574004951
:10143A006E76616C69642053796E746178004361D9
:10144A006C63756C6174696F6E204572726F72009D
:0E145A0050696F726974794572726F7200008A
:00000001FF
