:080000000C942F000C94000089
:100008000C9400000C9400000C9400000C94000068
:100018000C9400000C9400000C9400000C94000058
:100028000C9400000C9400000C9400000C94000048
:100038000C9400000C9400000C9400000C94000038
:100048000C9400000C9400000C9400003F065B4FD9
:10005800666D7D077F6FF894EE27ECBBF1E0FBBF80
:10006800EBBFE5BF8DE0A2E0BB27ED938A95E9F7EA
:1000780080E094E0A0E6ED930197E9F7EFE5EDBFA6
:10008800E4E0EEBFC0E6D1E00C944A00E1E0EA9378
:10009800A0E023D0E2E0EA93AFEF1FD0E3E0EA93D9
:1000A800AFEF1BD0E4E0EA93AFE017D0E2E0EA93C9
:1000B800EA93A0E9B1E02DD0E4E0EA93A8EBBBE035
:1000C80072D0E0E0EA93A1E0D7D0E1E0EA93A2E0C1
:1000D80093D0A1E018D1F9CFFFCF95D119F4E881D9
:1000E800EABB16C0E230A0E0FA0719F4E881E7BBE2
:1000F8000FC0E330A0E0FA0719F4E881E4BB08C0B8
:10010800E430A0E0FA0719F4E881E1BB01C0F9C0C6
:10011800F8C0BA93AA93EB817DD171F4E0E0E09343
:1001280060017DD140F4EFEFEBBB7ED1E0E0EBBBAB
:100138007BD17ED1F6CF35C0E230A0E0FA0771F46A
:10014800E0E0E09360016BD140F4EFEFE8BB6CD1E5
:10015800E0E0E8BB69D16CD1F6CF23C0E330A0E082
:10016800FA0771F4E0E0E093600159D140F4EFEF51
:10017800E5BB5AD1E0E0E5BB57D15AD1F6CF11C063
:10018800E430A0E0FA0769F4E0E0E093600147D1C9
:1001980040F4EFEFE2BB48D1E0E0E2BB45D148D103
:1001A800F6CF24960895BA93AA93E0E0E09360010D
:1001B800A0916001A830E0F4BB27EA81F0E0AE0F1F
:1001C800BF1FE1E0F0E00E948D02EA1BFB0BA7E0F5
:1001D800B0E00E947502A1E00E944002E8BBE881FD
:1001E800F9810E944802DF010E94320221D1E0CF4A
:1001F800E0E0E8BB2396089506D121F4E9B3E09343
:10020800610119C0E230A0E0FA0721F4E6B3E093F7
:10021800610111C0E330A0E0FA0721F4E3B3E093F1
:10022800610109C0E430A0E0FA0721F4E0B3E093EB
:10023800610101C066C0E881EDD021F4E09161015F
:10024800EBBB19C0E230A0E0FA0721F4E0916101AC
:10025800E8BB11C0E330A0E0FA0721F4E0916101A6
:10026800E5BB09C0E430A0E0FA0721F4E0916101A0
:10027800E2BB01C046C045C0AA93E881CBD019F4BF
:10028800EEE0E2BB1DC0E230A0E0FA0719F4EDE0B1
:10029800E2BB16C0E330A0E0FA0719F4EBE0E2BBDA
:1002A8000FC0E430A0E0FA0719F4E7E0E2BB08C0A9
:1002B800E530A0E0FA0719F4E0E0E2BB01C021C094
:1002C800E981F0E0309759F4E0E0E0936001A09113
:1002D8006001AA3018F4B2D0ABD0F9CF12C0E13027
:1002E800A0E0FA0771F4E9E0E0936001A0916001F1
:1002F800AF3F39F0A3D0E0916001E150E093600195
:10030800F5CF22960895AA93E9B3E0936101E091AD
:100318006101E03009F475C0A0916101BB2799D053
:10032800E0936301A0916101B0E0EAE0F0E00E948F
:100338006202DF018ED0E0936401A0916101B0E018
:10034800E4E6F0E00E946202DF0183D0E0936501F9
:10035800E0E0E0936001A0916001A43198F5E0919C
:100368006001F0E0A3E0B0E00E947502A1E00E9405
:100378004002E095E2BBA0916001BB27E4E0F0E019
:100388000E946702DF01329741F4E0916301F0E0D7
:10039800EC5AFF4FE491E0680EC0FD01A3E0B0E025
:1003A8000E948D02EA1BFB0BEE59FE4FE081F0E044
:1003B800EC5AFF4FE491E5BBA5E0B0E00E943202A1
:1003C80037D0C9CFA881AB3010F4A13008F419C0D8
:1003D800E881A0916201AE1768F4A881E0916201FA
:1003E800EA1BE65FE0936201E0916101E150E0936E
:1003F800610106C0A881E0916201EA1BE0936201F5
:1004080086CF21960895AA93E981F0E0E130A0E033
:10041800FA070895F0E0E130A0E0FA070895EA81CC
:10042800A0916001AE170895A881B9810C94320299
:10043800E0916001EF5FE09360010895E091600151
:10044800F0E0EC5AFF4F049005BAA8EEB3E00C9424
:100458003202EAE0F0E00E9467020895109639F04F
:1004680080ED97E00197F1F7A8951197C9F70895DE
:10047800F195E195F0400895EE230E2EEA2F19F03C
:10048800EE0F0A94E9F70895F695E795F695E7953E
:10049800F695E79508950024112490E1AA0FBB1F53
:1004A800001C111C0E1A1F0A18F40E0E1F1E01C084
:1004B800A1609A9599F7FD01D00108951CD0EBDF52
:1004C8000EF4D6DF0895E894B7FF04C0A095B09560
:1004D80011966894F7FDCCDFDEDFFD010EF4C8DF6E
:1004E8000895E894F7FF02C0C3DF6894EA23FB236A
:1004F8000EF4BEDF0895E894F7FF02C0B9DF6894F0
:10050800B7FF06C0A095B095119600F8039400FABD
:1005180008951B2EBF2FF12D1A2EAE2FE12D089511
:00000001FF
