:040000000C947700E5
:100004000C9400000C9400000C9400000C9400006C
:100014000C9400000C9400000C9400000C9400005C
:100024000C9400000C9400000C9400000C9400004C
:100034000C9400000C94AD000C9400000C9400008F
:100044000C9400000C9400000C940F010C9400001C
:100054001027E80364000A000100001000011000EA
:100064000100000000000000537562726F7574692E
:100074006E652031203A006164632564203D2025AB
:10008400346420286D762900537562726F75746923
:100094006E652032203A00537562726F7574696E12
:1000A400652033203A0064757479206379636C6544
:1000B400203D2025640080C001002D4E414E0049A2
:1000C4004E4600000500050066000F0060016C004C
:1000D4000F006F018C000F007E019B000200AE0137
:1000E400BA000100B201BC000000F894EE27ECBB9A
:1000F400F1E0FBBFEBBFE5BF8DE0A2E0BB27ED93D2
:100104008A95E9F780E094E0A0E6ED930197E9F79A
:10011400E8ECF0E085919591009761F0A591B59197
:1001240005901590BF01F00105900D920197E1F73C
:10013400FB01F0CFEFE5EDBFE4E0EEBFC0E6D1E0B8
:100144000C94A4000E9407010E9436010E945101F0
:100154000E949E01FFCF8A93AA93BA93EA93FA93DB
:10016400EFB7EA93E091AD010E942C04AE0FBF1FDC
:10017400E4B1F5B1ED93FC93A091AD01AF5FA09311
:10018400AD01A83018F0E0E0E093AD01E091AD01DD
:10019400E05CE7B98BE18A95F1F7369AE991EFBF14
:1001A400F991E991B991A99189911895AA93E88156
:1001B400E064E7B98BE18A95F1F7369A349BFECF78
:1001C400349AE4B1F5B10C945F02E0E4E7B9E3EAF0
:1001D40003C0E0E4E7B9EBEEE6B9E0E0E0BF089580
:1001E400E0E0EABBEBBBE8EFE7BBE0E0E8BBEFEF46
:1001F400E4BBE0E0E5BBE0EFE1BBE0E0E2BB089597
:10020400E5E6E3BFE0E0E2BF0895EADFA0E10E9493
:100214003302E2E0E9BF789408950A921A92FA92BE
:100224006A937A938A939A93AA93BA93EA93FA93E2
:10023400EFB7EA93A0E00E94D8000E9432040E9423
:1002440039040E9432040E9448044CBEE991EFBF75
:10025400F991E991B991A9919991899179916991CA
:10026400F9901990099018950E94E700A0E6B1E072
:10027400E7D05524E8E05E1688F46097A52D0E9427
:10028400D8003F010E945C040E946A040E946F042B
:10029400F3010E947D0460965394ECCF08950E946C
:1002A400EB00ADD0AFE6B1E0CBD05524E8E05E166C
:1002B40008F041C06097E52D0E942C04AE0FBF1FCB
:1002C4000D901C900E948C040E949304D001AE1BDC
:1002D400BF0B0E940904BF01E52D0E942C040E945B
:1002E4009304DF01E4E1F0E00E942F066E177F071C
:1002F40090F00E946A04E52D0E942C040E9493044D
:100304000E945C040E946F04E52D0E942C040E944C
:1003140093040E947D040E948C04EA0FFB1F0F01CA
:10032400E52D0E942C040E949304D001ED93FC93CC
:1003340060965394BBCF089563DF0E94E7005FD0BB
:10034400AEE7B1E07DD06097882499244424A0E0EE
:100354000E94D8004F01662777270E9442050E9419
:1003640039044E2EFE01FA93EA93EAEAF0E0FA9396
:10037400EA93E42DFF27662777270E944A0684E044
:100384000E94D5032896E42DF0E00E942A060E94DC
:1003940042050E9448040E946A04DE0151D04CBE0A
:1003A4006096D1CFAA93E5B3EF70AE2FE881E07FDA
:1003B400EA2BE5BB8DE08A95F1F7AA9A8DE08A9540
:1003C400F1F7AA988DE08A95F1F777C0AA93A881EE
:1003D400E9DFE881E295E883A881E4DF85E88A958E
:1003E400F1F76BC0AA93E881F0E0E255FE4FE0819B
:1003F400A981AE0FEBDFB980A88022960895A2E010
:100404000E949804ACE0E2DFA1E00E949804E0E0DE
:10041400AE2EBE2E0895AA93A881AA3011F0BD1461
:1004240048F0E0E0EA93A394AA2DDCDFA881AA3087
:1004340009F443C0B394A89AA881C8DFA8983DC022
:10044400BA93AA931A93A981BA81ED91A983BA8325
:100454001E2FE03019F0A12FDEDFF5CF188123968F
:100464000895AA93E4B3E06FE4BBA29AA09AA19A78
:10047400AA98A898A998D880E881E058E093B00198
:10048400E881E054E093B101A4E1B0E00E94D20419
:100494000E949E040E949E040E949E04A0E282DFA9
:1004A40088EC90E00197F1F7A8E290DFA4E08EDFFA
:1004B400A5E88CDFA6E08ADFA2DF21960895BA932F
:1004C400AA931A930A93AA81BB8112960E944206A8
:1004D400309759F1AA81BB8114960E9442068F017C
:1004E400309761F00230E0E01E0798F0F801319790
:1004F4008F01AA81BB811496ED93FC93AA81BB81E1
:100504001296ED91FD913196FE93EE933197AC8165
:10051400A083AA81BB810E944206FF232AF0ED91A9
:10052400FD913196FE93EE9306C0AA81BB81EFEF55
:10053400FFEFED93FC931981088125960895BA93F2
:10054400AA9326970E945C0610E0AC85BD85E0E086
:10055400F0E0ED93FC93EA89FB893196EA8BFB8BFF
:100564003197E4912E2FE03009F415C1E12FE030EA
:1005740039F4253211F411E002C00E94A6040AC124
:10058400E130A9F4253219F40E94A60402C112E054
:1005940040E000E02D3211F401E0FCC02B3211F4F4
:1005A4004BE2F8C0203211F440E2F4C002C0E23061
:1005B40039F450E013E0203311F40068EBC003C0B9
:1005C400E33009F0E7C0203310F02A3308F007C005
:1005D400AAE05A9F502DE22FE0535E0FDBC0E22FBA
:1005E400E33649F40E94AD04E889F989A481AA9309
:1005F4000E94B304CEC0E33741F40E94AD040E94CC
:10060400B9040E9413041E2F0AC0E03761F40E944B
:10061400AD040E94B9040E941F041E2F08600260EA
:100624000F7730E034C0E43611F0E93611F4046099
:1006340002C0E53731F4E4E5F0E0EE83FF8315E032
:100644000CC0E83511F4086003C0E83709F0A1C014
:10065400EEE5F0E0EE83FF8314E002FF14C00E9495
:10066400AD040E94C304AB85AA233AF4EA85FB8552
:100674000E941E06EA87FB874DE2403011F01F5F9F
:1006840001C00B7F04C00E94AD040E94C30400FD9E
:1006940011C0151778F407FF08C002FF04C00B7FD0
:1006A400242F115001C020E301C020E20E94A604BF
:1006B4005150EFCF312F01FF17C03030A1F003FFAD
:1006C40006C0EE81FF812591EE83FF8305C0AE81D4
:1006D400BF812D91AE83BF830E94A604503009F0E0
:1006E40051503150EACF4BC020E3EE81FF810E948C
:1006F4004606E887F987EE81FF813296EE83FF8311
:10070400E885F985AA85BB85AE17BF0750F02F5F32
:10071400A885B985EA85FB85EA1BFB0BEA87FB877D
:10072400EFCF2A3328F003FF02C0295F01C0295DFF
:1007340004FD1AC0213320F4A885B985119709F462
:1007440009C0531710F000FF01C013C020E207FFD7
:100754000BC020E3006102FF07C00B7F4A930E9495
:10076400B304503009F051500E94A604503009F0EF
:1007740051503150A885B985129708F0B5CF00FFC4
:1007840008C0503031F05150E0E2EA930E94B304C3
:10079400F8CF10E0E0CEAC85BD850E9442060E94F1
:1007A400630664960895FF92F82E26970E945E06CB
:1007B4000E94CB04309719F4EFEFFFEF23C0DE0162
:1007C40016960E941A068D010E94CB04EE83FF83C5
:1007D400E0E0E887E987DE011A960E941A060E9483
:1007E4004206FA93EA931A930A93E1E6F2E0FA9343
:1007F400EA93DE011A96A3DE9F01AE81BF81E0E099
:10080400EC93F9010E9465062A96FF900895BA9325
:10081400AA93E991F99130971AF4E095F0953196FD
:100824000895BA93AA93A991B991EE27FF276D91E0
:10083400662311F03196FBCF0895BA93AA93AA27A1
:10084400BB27E991F9910590002011F01196FBCF97
:10085400FD010895ADE8B1E0F0E0EE0FFF1F08954B
:100864004E2EF0E00E942A060E9442050895AEE052
:10087400BDE282EB9DE30E94CC05A0E0B0E080EAFB
:1008840090E40E947C050E9409050895AAE0B7ED52
:1008940083E290E40E94CC05DF01CB01E0E0F0E0CC
:1008A40060E87FE30E944F060E9475050E940905D7
:1008B4004E2E0895662777270E944205AEE4B2E6DD
:1008C4008CE990E40E94CC050E9409053F0108953B
:1008D400E0E0EA93A1E00C94F401FE01FA93EA93B8
:1008E400EBE7F0E0FA93EA93E52DFF2766277727F5
:1008F4000E944A060895662777270E944A0688E0E0
:100904000E94D5032C96DE010E942202A8EEB3E0D9
:100914000C94D204E52DADE9B1E0F0E0EE0FFF1F39
:100924000895AE0FBF1F0E94420608950E94E80179
:10093400A3E0B0E00C94D204A0E30E94D40188ECBC
:1009440090E00197F1F708952A93AD85BE85EF8570
:10095400F88909950895E889F9893497E88BF98B22
:100964000895AD85BE85EF85F88909950895A88910
:10097400B98914960E944206EE83FF83AE81BF813B
:100984000895A889B98914960E944206EA87FB87CC
:100994000895DE011C960E941A060E9442060895DC
:1009A400109639F080ED97E00197F1F7A89511972B
:1009B400C9F70895552342F4503811F4E0FF04C0F8
:1009C4003196691F791F6BF050E8572711F45F9334
:1009D400CFC05F3F31F0660F000C57956795752FB8
:1009E40008955F9300200AF0CFC0C8C050E8192EC4
:1009F4001522880F991F9527550F879550E8072EC4
:100A04000522660F771F7527550F6795089568941B
:100A140001C0E8945F93F2DF703818F07F3F08F468
:100A2400A7C056E1571BAAF4519558300EF459301B
:100A340030F0EFEFFFEF6FEF7FE777F91AC077271A
:100A44005523B9F0EE0FFF1F661F771F5A95D1F794
:100A540010C07727583028F0EF2FF62F672F585003
:100A6400F9CF552331F076956795F795E7955A9523
:100A7400D1F700200AF4E4D05F910895689401C08E
:100A8400E894309760407040B1F0002426F077235A
:100A940012F40094D5D0172E7EE1112032F07A950D
:100AA400EE0FFF1F661F111CF9CFEF2FF62F612DDC
:100AB4005F938ADF5F9108954F93AF01FD01DA01DF
:100AC400AB01BC01CA01402D012C142E4F91089595
:100AD400EA0FFB1F681F0895E095F0956095EF5F9E
:100AE400FF4F6F4F08955F9381DF903871F150E8A5
:100AF400152604C05F937ADF903839F1703821F1FC
:100B0400572F591B2BF112F4D7DFFACF583118F0B5
:100B1400AA27BB278827583028F0AB2FB82F88275F
:100B24005850F9CF552329F08695B795A7955A952E
:100B3400D9F7502D512572F0CBDF38F46795F7952E
:100B4400E795739513F420C0B7DF3EDF5F910895F6
:100B5400D8F7FBCFEA1BFB0B680B51F010F40094A1
:100B6400BBDF662392F3EE0FFF1F661F7A95CBF768
:100B7400EE27FF27662777275F910895EFEFFFEFB2
:100B84006FE77FEF5F910895EFEFFFEF6FE77FE788
:100B94005F9108955F932ADF703851F3903841F3E1
:100BA40001240894791F23F41CF300203AF3ECCFBA
:100BB4000F921F932F933F934F9311272227992727
:100BC400689FA0018F9F302D410D591F6B9F300DE1
:100BD400411D591F8E9F27D0BF9F25D06A9F23D0C8
:100BE400BE9F1DD0AF9F1BD0AE9F110D291F391F73
:100BF400491F591FE32FF42F652F522F4F913F9117
:100C04002F911F910F9066232AF0550FEE1FFF1F9F
:100C1400661F02C073954BF2CDDE5F910895100DEF
:100C2400211D391F02C0200D311D491F591F089570
:100C34000024AF0DB01D0895F195E195F04008959D
:100C4400F09560957095E195FF4F6F4F7F4F089534
:100C54006F2F660F660B762F08950024112490E100
:100C6400AA0FBB1F001C111C0E1A1F0A18F40E0E2B
:100C74001F1E01C0A1609A9599F7FD01D001089546
:100C8400ED91FC91119708950590F491E02D08954C
:100C94007A936A93FA93EA930895182E862F612D16
:100CA400192E972F712D1B2EBF2FF12D1A2EAE2F1B
:100CB400E12D08955A934A933A932A931A930A93E7
:100CC40008955D814C813B812A81198108810895B1
:00000001FF
