:060000000C942F000C948B
:1000060000000C9400000C9400000C9400000C946A
:1000160000000C9400000C9400000C9400000C945A
:1000260000000C9400000C9400000C9400000C944A
:1000360000000C9400000C9400000C9400000C943A
:1000460000000C9400000C9400000C9400003F0685
:100056005B4F666D7D077F6FF894EE27ECBBF1E092
:10006600FBBFEBBFE5BF8DE0A2E0BB27ED938A9512
:10007600E9F780E094E0A0E6ED930197E9F7EFE574
:10008600EDBFE4E0EEBFC0E6D1E00C944A00E0E04C
:10009600EABBEFEFE7BBE4BBEFE0E1BB07D019D06B
:1000A6002CD028D03ED061D0FCCFFFCF5524E4E041
:1000B6005E1670F4EFEFE8BBA4EFB1E00E946801B2
:1000C600E0E0E8BBA4EFB1E00E9468015394EFCFF3
:1000D60008955524E8E05E1658F4E52DA1E00E9447
:1000E6007601E8BBA4EAB1E00E9468015394F2CF1E
:1000F600E0E001C0E9B3E8BB0895E0E0E2BBE9E077
:100106005E2EEFEFE51561F0E52DF0E0EC5AFF4FBE
:10011600049005BAA8EEB3E00E9468015A94F1CFA4
:10012600089549B2442001F17AD05524E4E15E16DF
:1001360060F498D011F4AAD001C0B0D0E5BBA5E018
:10014600B0E00E9468015394F1CFE0916001E03085
:1001560029F4E8E0E09360014A9405C0E09160016B
:10016600E250E0936001DECF089549B2442009F4DD
:1001760055C070B254D077FC08C0E9B3F0E0DF0197
:10018600E4E6F0E09AD0E093630176FC08C0E9B3B8
:10019600F0E0DF01EAE0F0E090D0E093620175FC68
:1001A60009C0E9B3F0E0DF01EAE0F0E00E94960161
:1001B600E093610174FC03C0E0E0E0936001E0912C
:1001C6006301A4E6EA02602DE0916201AAE0EA0278
:1001D600F001A62FAE0FE0916101EA0F4E2E5524D5
:1001E600E4E15E1660F43ED011F450D001C056D062
:1001F600E5BBA5E0B0E00E9468015394F1CFE09121
:100206006001E03029F4E8E0E09360014A9405C01B
:10021600E0916001E250E0936001A8CF0895A42D1B
:10022600BB27EAE0F0E00E949601E0936101A42D6D
:10023600B0E0EAE0F0E00E949101DF01EAE0F0E0E0
:100246000E949601E0936201A42DB0E0E4E6F0E09E
:100256000E949101DF01EAE0F0E00E949601E0933E
:1002660063010895E52DF0E0A3E0B0E00E94A4014B
:10027600A1E00E947601E095E2BBA52DBB27E4E054
:10028600F0E00E949601DF0132970895E091610146
:10029600F0E0EC5AFF4FE491E0680895FD01A3E019
:1002A600B0E00E94BC01EA1BFB0BE05AFE4FE08166
:1002B600F0E0EC5AFF4FE49108950E949101DF01AE
:1002C600EAE0F0E00E9496010895109639F080ED7C
:1002D60097E00197F1F7A8951197C9F70895F19559
:1002E600E195F0400895EE230E2EEA2F19F0EE0F59
:1002F6000A94E9F708950024112490E1AA0FBB1F80
:10030600001C111C0E1A1F0A18F40E0E1F1E01C027
:10031600A1609A9599F7FD01D00108951CD0EBDFF5
:100326000EF4DDDF0895E894B7FF04C0A095B095FC
:1003360011966894F7FDD3DFDEDFFD010EF4CFDF03
:100346000895E894F7FF02C0CADF6894EA23FB2306
:100356000EF4C5DF0895E894F7FF02C0C0DF689485
:10036600B7FF06C0A095B095119600F8039400FA61
:1003760008951B2EBF2FF12D1A2EAE2FE12D0895B5
:00000001FF
