:0C0000000C94B3000C9400000C94000061
:10000C000C9400000C9400000C9400000C94000064
:10001C000C9400000C9400000C9400000C94000054
:10002C000C94CF010C9400000C9427020C9400004B
:10003C000C9400000C9400000C9400000C94000034
:10004C000C9400000C9400001027E80364000A00D4
:10005C0001000010000110000100000025307800A4
:10006C00280029002564004C43442044656C6574C9
:10007C0065004D6963726F50726F636573736F7255
:10008C00204C6162004E6F2046756E6374696F6E12
:10009C0020446566696E65642021004672616D6559
:1000AC00206D757374206265203520696E746567E8
:1000BC006572004672616D6520697320436F7272C0
:1000CC00656374004C656E676874204F66204672D9
:1000DC00616D65206973206E6F7420436F72726559
:1000EC006374000080C001002D4E414E00494E4605
:1000FC000000010002006600020060016C000200BA
:10010C0062016E000B00640173000B006F01730041
:10011C0013007A017E0013008D017E001600A001F1
:10012C0091001600B60191001800CC01A700180030
:10013C00E401A7001100FC01BF0011000D02BF007B
:10014C001F001E02D0001F003D02D00002007402EE
:10015C00F00001007802F2000000F894EE27ECBBEE
:10016C00F1E0FBBFEBBFE5BF8DE0A2E0BB27ED9359
:10017C008A95E9F780E094E0A0E6ED930197E9F722
:10018C00EEEFF0E085919591009761F0A591B59116
:10019C0005901590BF01F00105900D920197E1F7C4
:1001AC00FB01F0CFEFE5EDBFE4E0EEBFC0E6D1E040
:1001BC000C94E00019D00E945001FFCFE0E0EABBA4
:1001CC00EBBBE7BBE8BBE4BBE5BBE1BBE2BB089523
:1001DC00E0E8F5E2FA93EA93E2E0F0E0FA93EA93CE
:1001EC00A2E0B0E007D00895E9DFA0E10E94CA02C6
:1001FC0078940895BA93AA932A97E0E0EBB9EAB9F8
:10020C00E6E8E0BDAC85BD85119721F0AC85BD85D8
:10021C00129711F4E8E0EAB9AA85BB85119721F091
:10022C00AA85BB85129711F4E0E1EAB9AC85BD85CE
:10023C00129711F4E8E4EAB9AA85BB85129711F478
:10024C00E0E9EAB9EE85FF850E944105A0E2B1EA3A
:10025C0087E090E00E946B053197EE87FF87FE01E7
:10026C00FA93EA93E8E6F0E0FA93EA93EA89FB89D9
:10027C000E9441050E948B0584E00E947C04289614
:10028C00DE010E94C002EE85E070E0BDEE85E9B9AA
:10029C0060960895E9970E94900500E010E020E038
:1002AC0030E040E050E094DFACD0EE83F8010F5F1B
:1002BC001F4FDE011D96EA0FFB1FAE81A083A932F2
:1002CC0009F066C0E7E0F0E0E017F10709F052C072
:1002DC0021E030E02630E0E03E07BCF4DE011D9664
:1002EC00A20FB31FAC91A03338F0DE011D96A20F04
:1002FC00B31FAC91AA3308F003C040E050E002C039
:10030C0041E050E02F5F3F4FE5CFE1E0F0E0E41734
:10031C00F50751F40E94DE04ACECB1E00E94C0027F
:10032C00A4EEB1E00E94F80200240416050619F4AC
:10033C00AD85A83209F01DC00E94DE04ACEFB1E01F
:10034C000E94C002ADE0B2E00E94F802FE013796B6
:10035C00FA93EA93FE017096FA93EA93A5E00E9451
:10036C00C904DE0117960E94C002DE0117960E9496
:10037C00F8020AC00E94DE04AEE1B2E00E94C002A4
:10038C00ADE3B2E00E94F80200E010E040E050E083
:10039C008BCFAA93EA93FA93EFB7EA931A930A9343
:1003AC001BB10CB1E12FEC71E9F4E0916402EF5F49
:1003BC00E0936402E150F0E0E45AFD4F0083A09119
:1003CC006402A83019F4E0E0E0936402A0916602A4
:1003DC00AF5FA0936602A83029F4E0E0E0936602D8
:1003EC00689420F8E0917202F0917302309731F426
:1003FC00E1E0F0E0E0937202F0937302099119913D
:10040C003EC01A93E0916602E030E1F3E0916502A0
:10041C00EF5FE0936502E150F0E0E45AFD4F10818C
:10042C00A0916502A83019F4E0E0E0936502F8941D
:10043C00E0916602E150E09366027894E12F199105
:10044C000895AA93EA93FA93EFB7EA93E0917102B5
:10045C00E030A9F0E150E0937102E0917002EF5F9F
:10046C00E0937002E150F0E0E959FD4FE081ECB906
:10047C00A0917002A83019F4E0E0E0937002E991C9
:10048C00EFBFF991E991A9911895AA93A0917102E6
:10049C00A830E1F3F894E0917102E03011F45D9929
:1004AC0018C0E0916F02EF5FE0936F02E150F0E053
:1004BC00E959FD4FA881A083A0916F02A83019F4CF
:1004CC00E0E0E0936F02E0917102EF5FE093710264
:1004DC0002C0E881ECB9789483C0AA93E5B3EF70BD
:1004EC00AE2FE881E07FEA2BE5BB8DE08A95F1F732
:1004FC00AA9A8DE08A95F1F7AA988DE08A95F1F782
:10050C006FC0AA93A881E9DFE881E295E883A8810E
:10051C00E4DF85E88A95F1F763C0AA93E881F0E0FF
:10052C00EC58FD4FE081A981AE0FEBDF598048807C
:10053C0022960895A2E00E94E504ACE0E2DFA1E07F
:10054C000E94E504E0E04E2E5E2E0895AA93A88149
:10055C00AA3011F0571440F0E0E0EA934394A42D34
:10056C00DCDFA881AA30E1F15394A89AA881C9DFF5
:10057C00A89836C0BA93AA931A930E94EB0419F068
:10058C00A12FE4DFFACF3BC0AA93E4B3E06FE4BB46
:10059C00A29AA09AA19AAA98A898A9987880E8817A
:1005AC00E058E0937602E881E054E0937702A4E10E
:1005BC00B0E00E9427050E94F3040E94F3040E94FD
:1005CC00F304A0E28ADF88EC90E00197F1F7A8E24F
:1005DC0098DFA4E096DFA5E894DFA6E092DFAADF1F
:1005EC0021960895BA93AA931A930E94EB0421F0D2
:1005FC00A12F0E944B02F9CFAAE00E944B02188156
:10060C0023960895BA93AA931A930A93AA81BB814D
:10061C0012960E948305309759F1AA81BB811496DA
:10062C000E9483058F01309761F00230E0E01E07D5
:10063C0098F0F80131978F01AA81BB811496ED9344
:10064C00FC93AA81BB811296ED91FD913196FE939C
:10065C00EE933197AC81A083AA81BB810E94830564
:10066C00FF232AF0ED91FD913196FE93EE9306C097
:10067C00AA81BB81EFEFFFEFED93FC931981088109
:10068C0025960895BA93AA9326970E94900510E098
:10069C00AC85BD85E0E0F0E0ED93FC93EA89FB8945
:1006AC003196EA8BFB8B3197E4912E2FE03009F4D5
:1006BC0015C1E12FE03039F4253211F411E002C0FC
:1006CC000E94FB040AC1E130A9F4253219F40E94FE
:1006DC00FB0402C112E040E000E02D3211F401E015
:1006EC00FCC02B3211F44BE2F8C0203211F440E282
:1006FC00F4C002C0E23039F450E013E0203311F4BE
:10070C000068EBC003C0E33009F0E7C0203310F001
:10071C002A3308F007C0AAE05A9F502DE22FE0536D
:10072C005E0FDBC0E22FE33649F40E940205E88934
:10073C00F989A481AA930E940805CEC0E33741F43D
:10074C000E9402050E940E050E94B0041E2F0AC0D2
:10075C00E03761F40E9402050E940E050E94BC0461
:10076C001E2F086002600F7730E034C0E43611F0C1
:10077C00E93611F4046002C0E53731F4E4E5F0E049
:10078C00EE83FF8315E00CC0E83511F4086003C05C
:10079C00E83709F0A1C0EEE5F0E0EE83FF8314E04A
:1007AC0002FF14C00E9402050E941805AB85AA2303
:1007BC003AF4EA85FB850E943505EA87FB874DE212
:1007CC00403011F01F5F01C00B7F04C00E94020576
:1007DC000E94180500FD11C0151778F407FF08C01A
:1007EC0002FF04C00B7F242F115001C020E301C075
:1007FC0020E20E94FB045150EFCF312F01FF17C0B4
:10080C003030A1F003FF06C0EE81FF812591EE830D
:10081C00FF8305C0AE81BF812D91AE83BF830E9443
:10082C00FB04503009F051503150EACF4BC020E35B
:10083C00EE81FF810E948705E887F987EE81FF81B1
:10084C003296EE83FF83E885F985AA85BB85AE17C2
:10085C00BF0750F02F5FA885B985EA85FB85EA1B99
:10086C00FB0BEA87FB87EFCF2A3328F003FF02C08C
:10087C00295F01C0295D04FD1AC0213320F4A8852D
:10088C00B985119709F409C0531710F000FF01C086
:10089C0013C020E207FF0BC020E3006102FF07C07A
:1008AC000B7F4A930E940805503009F051500E946A
:1008BC00FB04503009F051503150A885B98512977E
:1008CC0008F0B5CF00FF08C0503031F05150E0E2D5
:1008DC00EA930E940805F8CF10E0E0CEAC85BD8508
:1008EC000E9483050E94970564960895FF92F82E46
:1008FC0026970E9492050E942005309719F4EFEF7D
:10090C00FFEF23C0DE0116960E9431058D010E9477
:10091C002005EE83FF83E0E0E887E987DE011A9685
:10092C000E9431050E948305FA93EA931A930A9365
:10093C00E8E0F3E0FA93EA93DE011A96A3DE9F0156
:10094C00AE81BF81E0E0EC93F9010E9499052A96F3
:10095C00FF900895BA93AA93A991B991EE27FF2716
:10096C006D91662311F03196FBCF0895BA93AA933B
:10097C00AA27BB27E991F9910590002011F0119657
:10098C00FBCFFD010895AA937991E991F991A99171
:10099C00B991CD01772351F07A9561916D936623CE
:1009AC00C9F7772319F07A956D93FBCFFC01089565
:1009BC000E94A002E0E0EA93A0E00C9493020E9453
:1009CC008702A3E0B0E00C942705A981BA81ED91D0
:1009DC00A983BA831E2FE0300895A0E30E9473020E
:1009EC0088EC90E00197F1F708952A93AD85BE85C8
:1009FC00EF85F88909950895E889F9893497E88B8A
:100A0C00F98B0895AD85BE85EF85F8890995089514
:100A1C00A889B98914960E948305EE83FF83AE8161
:100A2C00BF810895A889B98914960E948305EA8725
:100A3C00FB870895DE011C960E9431050E948305F8
:100A4C000895109639F080ED97E00197F1F7A8958D
:100A5C001197C9F708950024AF0DB01D0895F195B5
:100A6C00E195F0400895F09560957095E195FF4FF4
:100A7C006F4F7F4F08956F2F660F660B762F08957B
:100A8C003F934F935F93002411244427552730E262
:100A9C00AA0FBB1F881F991F001C111C441F551F38
:100AAC000E1A1F0A460B570B28F40E0E1F1E461F5C
:100ABC00571F01C0A1603A9559F7FD01BC01D00147
:100ACC00CA015F914F913F91089504D0D9DF0EF484
:100ADC00CADF0895E89477FF02C0C5DF689497FFDA
:100AEC000BC00024A095B095809590951196801D13
:100AFC00901D00F8039400FA0895ED91FC91119764
:100B0C0008950590F491E02D08957A936A93FA93E1
:100B1C00EA9308955A934A933A932A931A930A9311
:100B2C0008955D814C813B812A811981088108954A
:00000001FF
