:100000000C947E010C949B010C949B010C949B011D
:100010000C949B010C949B010C949B010C949B01F0
:100020000C949B010C949B010C949B010C949B01E0
:100030000C949B010C949B010C949B010C949B01D0
:100040000C949B010C949B010C949B010C949B01C0
:100050000C949B010000000000000000004F000015
:10006000000000070007000000147F147F14000048
:10007000242A7F2A120000231308646200003649F4
:10008000552220000000050300000000001C224152
:100090000000000041221C00000014083E0814006B
:1000A0000008083E0808000050300000000000086A
:1000B0000808080800000060600000000020100828
:1000C000040200003E5149453E000040427F40404E
:1000D0000000426151494600002141454B3100007A
:1000E0001814127F100000274545453900003C4A8E
:1000F00049493000000171090503000036494949AA
:10010000360000064949291E00000036360000006E
:1001100000005636000000000814224100000014C0
:1001200014141414000000412214080000020151AC
:10013000090600003E415D551E00007E111111119F
:100140007E007F4949494936003E414141412200F4
:100150007F414141221C007F4949494941007F09B3
:1001600009090901003E414949497A007F08080808
:10017000087F000041417F4141002041413F010192
:1001800000007F08142241007F40404040400000B2
:100190007F020C027F007F040810207F003E414157
:1001A00041413E007F0909090906003E41415121B4
:1001B0005E007F090919294600264949494932004C
:1001C0000001017F0101003F404040403F00001F0F
:1001D0002040201F00003F4038403F0000631408CB
:1001E0001463000007087008070000615149454387
:1001F00000007F41410000000204081020000000C0
:1002000041417F0000000402010204000040404020
:1002100040400000000003050000002054545454E6
:1002200078007F48484848300038444444444400FB
:1002300038444444447F003854545454180004044F
:100240007E05050500044A4A4A4A3C007F0804042A
:100250000478000000447D40000000002040443D40
:100260000000007F102844000000417F4000000093
:100270007C047C047800007C080404780000384486
:1002800044443800007C14141408000008141414AA
:100290007C0000007C0804040000485454542400EE
:1002A0000004043F444400003C4040207C00001C0B
:1002B0002040201C00003C4030403C0000442810FE
:1002C000284400000C5050503C00004464544C44FE
:1002D00000083641410000000000770000000000E7
:1002E00041413608000008082A1C080000081C2AA2
:1002F00008080000000000000000000011241FBEDC
:10030000CFE5D8E0DEBFCDBF12E0A0E6B0E0E2E18D
:10031000FCE102C005900D92AC34B107D9F722E0A0
:10032000ACE4B2E001C01D92AC37B207E1F70E9425
:10033000C6070C94070E0C9400008FB9779BFECF74
:100340000895EF92FF920F931F93CF93DF9300D006
:1003500000D0CDB7DEB719821A821B821C82880FAB
:1003600090E0FE01E80FF91F62839E012F5F3F4F6F
:10037000F901E80FF91F4083C4988E010B5F1F4FEE
:100380007901F80182918F010E949D010E151F05D0
:10039000C1F7C49A0F900F900F900F90DF91CF91FB
:1003A0001F910F91FF90EF9008950F931F93CF939C
:1003B000DF93D82F082F000F000F000F10E0045B11
:1003C0001D4FC0E0F80111928F01CF5F40E06C2F0C
:1003D0008D2F0E94A101C830A9F7DF91CF911F9105
:1003E0000F910895CF93DF9397B3906B97BB9DB117
:1003F00091659DB9ECE4F2E02CE632E011922E1703
:100400003F07E1F78823F1F0D82FC0E040E06FE02C
:100410008C2F0E94A10147E06BE08C2F0E94A1016C
:1004200040E069E08C2F0E94A10144E06AE08C2F3B
:100430000E94A10141E06CE08C2F0E94A101CF5FDE
:10044000DC13E4CFDF91CF910895462F6AE00E943C
:10045000A1010895CF93DF93833070F5683060F584
:10046000483050F5E82FEE0FEE0FEE0FA0E8B0E0A9
:1004700002C0B595A7954A95E2F7222351F0C62F01
:10048000D0E0CE0FD11DC45BDD4F9881A92BA8838E
:100490000AC0C62FD0E0CE0FD11DC45BDD4FA095A2
:1004A0009881A923A883F0E0E45BFD4FE60FF11DDE
:1004B0006F5F40810E94A101DF91CF910895833049
:1004C00078F4683068F4E82FEE0FEE0FEE0FF0E0EE
:1004D000E45BFD4FE60FF11D40836F5F0E94A101B9
:1004E00008959C01ADECBCEC0E9448099695879557
:1004F0009695879596958795009769F020E030E06E
:10050000EFECF7E03197F1F700C000002F5F3F4FAD
:1005100028173907A9F708959C01ADECBCEC0E949F
:10052000480996958795969587959695879500970E
:1005300059F020E030E042E04A95F1F700C02F5F2B
:100540003F4F28173907B9F708954F925F926F927E
:100550007F928F929F92AF92BF92CF92DF92EF9253
:10056000FF92CF936B017C0129013A0160E271EAAD
:1005700087E090E0A70196010E94290949015A01EC
:10058000A7019601C301B2010E94050928EE33E0DC
:1005900040E050E00E9429091216130614061506C1
:1005A000C4F429013A01C12CD12C7601C0E8C2BBA8
:1005B000C4010E948C0212BAC4010E948C028FEF07
:1005C000C81AD80AE80AF80A4C145D046E047F04BD
:1005D00071F7CF91FF90EF90DF90CF90BF90AF90E9
:1005E0009F908F907F906F905F904F9008958F9223
:1005F0009F92AF92BF92CF92DF92EF92FF920F93B2
:100600001F93CF93DF93C6E3D1E006EA11E00F2EEC
:10061000F6EACF2EF1E0DF2EF02D0F2EF8EEEF2EC2
:10062000F3E0FF2EF02D69917991C7010E94150921
:100630004B01770FAA08BB08F801619171918F01F6
:10064000072E000C880B990BA50194010E94A502AE
:10065000C501B4010E940C0826E636E646EA5FE3CF
:100660000E9470080E94D4079B01220F331FCB0108
:10067000880F991F880F991F880F991F820F931F4A
:100680000E948C02A501940160E070E0CB010E9401
:10069000A502CC15DD0539F6DF91CF911F910F91A1
:1006A000FF90EF90DF90CF90BF90AF909F908F9092
:1006B0000895E199FECF9FBB8EBB6DBBE29AE19A94
:1006C0000895E199FECF9FBB8EBBE09A8DB308954C
:1006D0004F925F926F927F928F929F92AF92BF9252
:1006E000CF92DF92EF92FF920F931F93CF93DF93FE
:1006F000CDB7DEB7C857D1090FB6F894DEBF0FBE2D
:10070000CDBFFC018081882309F49AC0AF014F5FFF
:100710005F4F9E012F5F3F4F3901D90160E070E0CC
:100720000EC094919D933196A217B307D1F76F5FD6
:100730007F4FFA018191AF01D901882389F090E0C0
:100740008097FC01EE0FFF1FEE0FFF1FEE0FFF1F44
:10075000E81BF90BEC5AFF4F9D01295F3F4FE1CF9A
:100760002B01440C551C440C551C440C551C461ABA
:10077000570A5201141415040CF062C0F0E14F0E38
:10078000511C6894882484F8912C55C008301105B8
:1007900084F4EA14FB043CF4F6014089602F80E005
:1007A0000E945F0229C040E0602F80E00E945F024B
:1007B00023C0EA14FB048CF4B801677070787723C7
:1007C00034F461507109686F7F6F6F5F7F4FF6017E
:1007D000408981E00E945F020FC0B80167707078A5
:1007E000772334F461507109686F7F6F6F5F7F4FBB
:1007F00040E081E00E945F0201501109F1E0CF1A50
:10080000D10821E0E21AF1080115110509F0BECF67
:1008100089E190E00E94710280E00E94D50181E0B0
:100820000E94D5013FEF631A730A8FEF881A980A66
:100830004814590429F07401630100E110E0A6CFC7
:10084000C858DF4F0FB6F894DEBF0FBECDBFDF91A3
:10085000CF911F910F91FF90EF90DF90CF90BF90BD
:10086000AF909F908F907F906F905F904F90089582
:100870001ABA80E881BB12BA82E00E94F20180E0DD
:100880000E94D50181E00E94D50162E080E00E94D3
:10089000250262E081E00E94250268E873E186E1BA
:1008A00092E00E9468030E94F7020895C89B03C06B
:1008B00081E080937402C99B03C082E0809374023C
:1008C000CA9B03C083E080937402CB9B03C084E087
:1008D00080937402809174020895CF93DF9390E027
:1008E0000E940A0B0E94050BC2E7D2E06FE070E0A5
:1008F0000E94150988830E94050B67E070E00E9442
:1009000015098983CE01DF91CF910895FF920F934E
:100910001F93CF93DF93C82F80E090E00E94610384
:1009200090E0909376028093750230916D00432F92
:1009300050E04150510914161506DCF421E080E026
:1009400090E0DC01AA0FBB1FA259BF4F880F991F6F
:10095000FC01EC52FF4F80818C93818111968C9326
:10096000822F90E02F5F841795075CF382E08093DD
:10097000700220916F02822F90E08C1B91098230CF
:10098000910511F0029639F4211104C0C23009F02A
:1009900099C027C0C22FC23021F118F4C13041F0F4
:1009A00092C0C33009F440C0C43009F45FC08BC0AA
:1009B000440F551FDA01A259BF4FFA01EE52FF4F03
:1009C00080818F708C93818190E001968770907800
:1009D000992324F40197886F9F6F019611968C9349
:1009E00072C0CA01880F991FFC01E259FF4FDC0158
:1009F000AE52BF4F8C9190E001968F709078992302
:100A000024F40197806F9F6F01968083440F551FD8
:100A1000FA01E259FF4FDA01AE52BF4F11968C91A5
:100A200087708183C2E04FC0FA01EE0FFF1FDF0124
:100A3000A259BF4FEE52FF4F80818F708C938181FE
:100A400090E0019722F4FD0187E081833CC0440FD0
:100A5000551FFA01E259FF4F87709078992324F4CB
:100A60000197886F9F6F019681832DC0FA01EE0F69
:100A7000FF1FEE52FF4F808190E0019742F4FA0190
:100A8000EE0FFF1FE259FF4F8FE080830EC0FA0187
:100A9000EE0FFF1FE259FF4F8F709078992324F4D7
:100AA0000197806F9F6F01968083440F551FFA0155
:100AB000E259FF4FDA01AE52BF4F11968C91877009
:100AC000818301C0C22F10927102332319F180E09B
:100AD000D1E090E0FC01EE0FFF1FEE52FF4F60816E
:100AE000683008F047C210926E02880F991FFC010F
:100AF000EE52FF4F677020E0418180916E020E94AC
:100B00002A02809171028F5F8093710290916D0033
:100B10008917F8F21092710280916D00882309F410
:100B200042C080E0D1E090E0FC01EE0FFF1FE259EF
:100B3000FF4F6081683008F020C210926E02880F6B
:100B4000991FFC01E259FF4F67702D2F4181809161
:100B50006E020E942A02809171028F5F809371025F
:100B600090916D008917F8F2109271029923D9F0D3
:100B7000EEE6F0E0A2EDB0E02FEF290F30E0220F1B
:100B8000331F20593F4F80818C93818111968C9324
:100B9000119732961296E217F307A9F79093710214
:100BA00082E08093700280916C00882309F440C039
:100BB000D0E000E011E080916D008D0F0E946D0487
:100BC000DC0190936D0280936C02DF5F90916D0069
:100BD0009923D9F04C91E2EDF0E02FEF290F30E0AE
:100BE000220F331F2C523F4F502F9081491307C0C3
:100BF00011969C9111978181981301C0512F3296C3
:100C0000E217F30791F75111D6CF6C91683040F09D
:100C1000677021E011964C9181E00E942A0206C083
:100C200021E011964C9180E00E942A0210926C0003
:100C300080916D0090E00197A0916C02B0916D02DF
:100C4000FC01EE0FFF1FE259FF4F30812C91321350
:100C5000ACC0880F991FFC01E259FF4F918111969A
:100C60008C919813A2C080E882BB8FEC97E001972B
:100C7000F1F700C0000012BA81E080936C00E091AF
:100C80006C02F0916D026081683030F0677020E096
:100C900041810E942A0205C020E0418180E00E943B
:100CA0002A02E0916D00EF5FE0936D00C23021F108
:100CB00018F4C13039F06DC0C330C1F1C43009F44B
:100CC0004FC067C0F0E0319720916C0230916D0207
:100CD000D9019C91AF01440F551FDA01A259BF4FB2
:100CE0009C93F90181818F5F11968C93FA01EE52EA
:100CF000FF4F908381834DC0F0E0319720916C02CB
:100D000030916D02D9018C918F5FAF01440F551F57
:100D1000DA01A259BF4F8C93F901918111969C93EE
:100D2000FA01EE52FF4F8083918333C0F0E0319798
:100D300020916C0230916D02D9019C91AF01440F5A
:100D4000551FDA01A259BF4F9C93F901818181504F
:100D500011968C93FA01EE52FF4F9083818319C054
:100D6000F0E0319720916C0230916D02D9018C91A5
:100D70008150AF01440F551FDA01A259BF4F8C9328
:100D8000F901918111969C93FA01EE52FF4F8083F5
:100D9000918380916A0090916B008630910528F0D4
:100DA000019790936B0080936A0081E080937102B9
:100DB00040916D0050E041505109423051050CF412
:100DC000C5C0EEE6F0E06081A18122E071E081E043
:100DD00090E001C0232FFC01EE0FFF1FE259FF4FEF
:100DE00030813613A8C0880F991FFC01E259FF4FCC
:100DF00081818A13A0C0709371022AEF30E040E035
:100E000050E060EE76E080E090E00E94A5022AEFDC
:100E100030E040E050E060EC7DE080E090E00E9457
:100E2000A5022AEF30E040E050E060EE76E080E09E
:100E300090E00E94A50268E873E18EE192E00E94D2
:100E4000680300916D0010E0025011098091750255
:100E5000909176028017910748F4109376020093E0
:100E60007502602F80E090E00E94590381E090E0DD
:100E70000E949809F82ED92F1F930F9388E292E0D1
:100E80009F938F9307E312E01F930F93DF93FF92DB
:100E90000E94150B68E873E18F2D9D2F0E94680357
:100EA000809176028F93809175028F938CE392E00C
:100EB0009F938F931F930F93DF93FF920E94150BC5
:100EC00068E873E18F2D9D2F0E94680382E0809374
:100ED0006D0081E08093770221E130E030936B0078
:100EE00020936A0080936C0028EC30E040E050E0F2
:100EF00060E276E080E090E00E94A50224E630E027
:100F000040E050E060EE76E080E090E00E94A502D4
:100F100028EC30E040E050E062E773E180E090E0F0
:100F20000E94A5028DB79EB740960FB6F8949EBF5B
:100F30000FBE8DBF0BC0822F90E031E0320F722FB9
:100F4000841795070CF446CF20937102C0936F026B
:100F500020916A0030916B00C901880F991F220F00
:100F6000331F220F331F220F331F820F931F0E9444
:100F7000710206C0D0936E02B8CDD0936E02DFCD61
:100F8000DF91CF911F910F91FF9008950E94380437
:100F900080917702811105C00E9456040E94860448
:100FA000F7CF10927702F4CF0E94DB076894B1115B
:100FB0000C946A0808950E944F0888F09F5798F093
:100FC000B92F9927B751B0F0E1F0660F771F881F4E
:100FD000991F1AF0BA95C9F714C0B13091F00E9468
:100FE0006908B1E008950C946908672F782F882765
:100FF000B85F39F0B93FCCF3869577956795B3958F
:10100000D9F73EF490958095709561957F4F8F4FFD
:101010009F4F0895E89409C097FB3EF49095809502
:10102000709561957F4F8F4F9F4F9923A9F0F92FAE
:1010300096E9BB279395F695879577956795B7952C
:10104000F111F8CFFAF4BB0F11F460FF1BC06F5F12
:101050007F4F8F4F9F4F16C0882311F096E911C024
:10106000772321F09EE8872F762F05C0662371F045
:1010700096E8862F70E060E02AF09A95660F771F59
:10108000881FDAF7880F9695879597F9089557FD89
:101090009058440F551F59F05F3F71F04795880FE6
:1010A00097FB991F61F09F3F79F08795089512167D
:1010B00013061406551FF2CF4695F1DF08C0161629
:1010C00017061806991FF1CF8695710561050894DA
:1010D0000895E894BB2766277727CB0197F90895F1
:1010E0000E9483080C94F4080E94E60838F00E94DD
:1010F000ED0820F0952311F00C94DD080C94E30822
:1011000011240C946A080E94470870F3959FC1F35C
:10111000950F50E0551F629FF001729FBB27F00DA5
:10112000B11D639FAA27F00DB11DAA1F649F6627FA
:10113000B00DA11D661F829F2227B00DA11D621F49
:10114000739FB00DA11D621F839FA00D611D221F03
:10115000749F3327A00D611D231F849F600D211DE7
:10116000822F762F6A2F11249F5750409AF0F1F06A
:1011700088234AF0EE0FFF1FBB1F661F771F881FD3
:1011800091505040A9F79E3F510580F00C94DD0826
:101190000C946A085F3FE4F3983ED4F38695779504
:1011A0006795B795F795E7959F5FC1F7FE2B880F79
:1011B000911D9695879597F9089597F99F6780E80F
:1011C00070E060E008959FEF80EC089500240A9499
:1011D0001616170618060906089500240A94121612
:1011E0001306140605060895092E0394000C11F445
:1011F000882352F0BB0F40F4BF2B11F460FF04C0F2
:101200006F5F7F4F8F4F9F4F0895DB018F939F93A9
:101210000E945709BF91AF91A29F800D911DA39F7E
:10122000900DB29F900D1124089597FB072E16F490
:10123000009407D077FD09D00E94620907FC05D011
:101240003EF4909581959F4F0895709561957F4FDD
:101250000895052E97FB1EF400940E94400957FD47
:1012600007D00E94760907FC03D04EF40C94400985
:1012700050954095309521953F4F4F4F5F4F0895C2
:1012800090958095709561957F4F8F4F9F4F0895F2
:10129000A29FB001B39FC001A39F700D811D1124B7
:1012A000911DB29F700D811D1124911D08950E9402
:1012B0004809A59F900DB49F900DA49F800D911D8E
:1012C00011240895AA1BBB1B51E107C0AA1FBB1F15
:1012D000A617B70710F0A61BB70B881F991F5A95C2
:1012E000A9F780959095BC01CD010895A1E21A2E31
:1012F000AA1BBB1BFD010DC0AA1FBB1FEE1FFF1FBA
:10130000A217B307E407F50720F0A21BB30BE40B09
:10131000F50B661F771F881F991F1A9469F7609550
:101320007095809590959B01AC01BD01CF0108950A
:101330000F931F93CF93DF938230910510F482E0D7
:1013400090E0E0917A02F0917B0220E030E0A0E0B2
:10135000B0E0309719F14081518102811381481723
:101360005907C8F08417950769F4109731F0129661
:101370000C93129713961C9327C000937A02109334
:101380007B0222C02115310519F04217530718F4CA
:101390009A01BD01EF01DF01F801DBCF2115310515
:1013A000F9F0281B390B2430310580F48A819B81A8
:1013B0006115710521F0FB019383828304C0909332
:1013C0007B0280937A02FE01329644C0FE01E20F56
:1013D000F31F8193919322503109398328833AC0B6
:1013E0002091780230917902232B41F42091620000
:1013F000309163003093790220937802209160004D
:10140000309161002115310541F42DB73EB740916F
:10141000640050916500241B350BE0917802F09137
:101420007902E217F307A0F42E1B3F0B28173907A8
:1014300078F0AC014E5F5F4F2417350748F04E0F30
:101440005F1F50937902409378028193919302C079
:10145000E0E0F0E0CF01DF91CF911F910F9108956F
:10146000CF93DF93009709F481C0FC013297138278
:101470001282A0917A02B0917B02109781F42081B0
:101480003181820F931F20917802309179022817C1
:10149000390751F5F0937902E093780267C0ED01C6
:1014A00020E030E0CE17DF0740F44A815B819E01E7
:1014B00041155105F1F0EA01F5CFD383C283408194
:1014C0005181840F951FC817D90759F488819981D4
:1014D000840F951F0296918380838A819B819383D9
:1014E00082832115310529F4F0937B02E0937A027F
:1014F0003DC0E901FB83EA8349915991C40FD51F8F
:10150000EC17FD0761F480819181840F951F02968D
:10151000E90199838883828193819B838A83E0E0B8
:10152000F0E012968D919C911397009719F0FD01B0
:10153000DC01F7CF8D919C9111979D012E5F3F4F5C
:10154000820F931F20917802309179022817390772
:1015500069F4309729F410927B0210927A0202C04B
:1015600013821282B0937902A0937802DF91CF9117
:1015700008958F929F92AF92BF92CF92DF92EF9297
:10158000FF92CF93DF93EC01688179818A819B81FF
:10159000611571058105910521F464E279ED8BE512
:1015A00097E02DE133EF41E050E00E942909490125
:1015B0005A019B01AC01A7EAB1E40E9457096B01F3
:1015C0007C01ACEEB4EFA50194010E94CB0DDC01CF
:1015D000CB018C0D9D1DAE1DBF1DB7FF03C0019734
:1015E000A109B04888839983AA83BB839F77DF9141
:1015F000CF91FF90EF90DF90CF90BF90AF909F90F2
:101600008F9008950E94B90A089586E690E00E949E
:10161000B90A0895A0E0B0E0809366009093670057
:10162000A0936800B09369000895AEE0B0E0EBE1EC
:10163000FBE00C94DE0D0D891E8986E08C831A83F5
:1016400009838FEF9FE79E838D83AE01475E5F4FD7
:101650006F89788DCE0101960E94370BEF81F88556
:10166000E00FF11F10822E96E4E00C94FA0DABE02F
:10167000B0E0EDE3FBE00C94D00D6C017B018A013E
:10168000FC0117821682838181FFCCC1CE010196B5
:101690003C01F6019381F70193FD859193FF8191C0
:1016A0007F01882309F4BAC1853239F493FD85910D
:1016B00093FF81917F01853229F4B60190E00E9469
:1016C0002E0DE7CF912C212C312CFFE1F315D8F012
:1016D0008B3279F038F4803279F08332A1F4232D03
:1016E00020611DC08D3261F0803369F4232D2160AB
:1016F00016C0832D8260382EE32DE4603E2E2AC072
:10170000F32DF8601DC037FC2DC020ED280F2A30C6
:1017100040F08E32B9F436FC81C1232D2064322E84
:1017200019C036FE06C08AE0989E200D1124922E24
:1017300011C0EAE02E9E200D1124222EF32DF0621E
:101740003F2E08C08C3621F4832D8068382E02C0CD
:10175000883641F4F70193FD859193FF81917F01D4
:101760008111B3CF982F9F7D9554933028F40C5F4F
:101770001F4F9FE399830DC0833631F0833771F09B
:10178000833509F059C021C0F801808189830E5F3B
:101790001F4F88248394912C530113C02801F2E039
:1017A0004F0E511CF801A080B18036FE03C0692D98
:1017B00070E002C06FEF7FEFC5010E94230D4C0166
:1017C0008201F32DFF773F2E16C0280122E0420E42
:1017D000511CF801A080B18036FE03C0692D70E075
:1017E00002C06FEF7FEFC5010E94180D4C01F32D71
:1017F000F0683F2E820133FC1BC0822D90E08816DA
:101800009906B0F4B60180E290E00E942E0D2A9471
:10181000F4CFF50137FC859137FE81915F01B60168
:1018200090E00E942E0D21102A9421E0821A910846
:101830008114910471F7E8C0843611F0893641F5BE
:10184000F80137FE07C060817181828193810C5F4E
:101850001F4F08C060817181072E000C880B990B07
:101860000E5F1F4FF32DFF763F2E97FF09C0909517
:101870008095709561957F4F8F4F9F4FF0683F2EF9
:101880002AE030E0A3010E946A0D882E861845C028
:10189000853731F4232D2F7EB22E2AE030E025C08B
:1018A000932D997FB92E8F36C1F018F4883579F0D1
:1018B000B5C0803719F0883721F0B0C0E92FE0615A
:1018C000BE2EB4FE0DC0FB2DF460BF2E09C034FE49
:1018D0000AC0292F2660B22E06C028E030E005C0DD
:1018E00020E130E002C020E132E0F801B7FE07C09D
:1018F00060817181828193810C5F1F4F06C060817E
:10190000718180E090E00E5F1F4FA3010E946A0D7D
:10191000882E8618FB2DFF773F2E36FE0DC0232D17
:101920002E7FA22E891458F434FE0BC032FC09C05D
:10193000832D8E7EA82E05C0B82CA32C03C0B82CF6
:1019400001C0B92CA4FE0FC0FE01E80DF11D80817D
:10195000803321F49A2D997EA92E09C0A2FE06C0DB
:10196000B394B39404C08A2D867809F0B394A3FC91
:1019700011C0A0FE06C0B21488F4280C922C9B184B
:101980000EC0B21460F4B60180E290E00E942E0D09
:10199000B394F7CFB21418F42B1802C0982C212C52
:1019A000A4FE10C0B60180E390E00E942E0DA2FEBE
:1019B00017C0A1FC03C088E790E002C088E590E072
:1019C000B6010CC08A2D867859F0A1FE02C08BE2C8
:1019D00001C080E2A7FC8DE2B60190E00E942E0DCE
:1019E000891438F4B60180E390E00E942E0D9A9499
:1019F000F7CF8A94F301E80DF11D8081B60190E0E4
:101A00000E942E0D8110F5CF222009F442CEB6019E
:101A100080E290E00E942E0D2A94F6CFF601868196
:101A2000978102C08FEF9FEF2B96E2E10C94EC0DB3
:101A3000FC010590615070400110D8F78095909599
:101A40008E0F9F1F0895FC0161507040019001109E
:101A5000D8F7809590958E0F9F1F08950F931F9331
:101A6000CF93DF93FB01238121FD03C08FEF9FEF15
:101A70002CC022FF16C04681578124813581421730
:101A8000530744F4A081B1819D012F5F3F4F318303
:101A900020838C93268137812F5F3F4F37832683A6
:101AA00014C08B01EC01FB010084F185E02D099548
:101AB000892BE1F6D80116968D919C911797019686
:101AC00017969C938E931697CE01DF91CF911F911D
:101AD0000F910895FA01AA27283051F1203181F1A0
:101AE000E8946F936E7F6E5F7F4F8F4F9F4FAF4F26
:101AF000B1E03ED0B4E03CD0670F781F891F9A1F39
:101B0000A11D680F791F8A1F911DA11D6A0F711DEC
:101B1000811D911DA11D20D009F468943F912AE0F8
:101B2000269F11243019305D3193DEF6CF010895E0
:101B3000462F4770405D4193B3E00FD0C9F7F6CF11
:101B4000462F4F70405D4A3318F0495D31FD4052D9
:101B5000419302D0A9F7EACFB4E0A695979587956F
:101B600077956795BA95C9F700976105710508954E
:101B70009B01AC010A2E06945795479537952795FA
:101B8000BA95C9F7620F731F841F951FA01D089592
:101B9000B7FF0C9457090E945709821B930B0895B5
:101BA0002F923F924F925F926F927F928F929F926D
:101BB000AF92BF92CF92DF92EF92FF920F931F935B
:101BC000CF93DF93CDB7DEB7CA1BDB0B0FB6F8940C
:101BD000DEBF0FBECDBF09942A88398848885F844C
:101BE0006E847D848C849B84AA84B984C884DF80BD
:101BF000EE80FD800C811B81AA81B981CE0FD11DA1
:101C00000FB6F894DEBF0FBECDBFED010895F89476
:021C1000FFCF04
:101C120000007C022000010000001100010201010D
:101C220002010000000000000000000000000000AF
:101C320000000000000000000000000000000000A2
:101C42000000000000000000000000000000000092
:101C52000000000000000000000000000000000082
:101C62000000000000000000000000000000000072
:101C72000000000000000000000000000000000062
:101C8200000001010201000000000000000000004D
:101C92000000000000000000000000000000000042
:101CA2000000000000000000000000000000000032
:101CB2000000000000000000000000000000000022
:101CC2000000000000000000000000000000000012
:101CD2000000000000000000000000000000000002
:101CE2000000000000000C000C000C000C000C00B6
:101CF2000C00060003000C000C000C000C000C0091
:101D02000C00060003000C000C000C000C000C0080
:101D12000C00060003000C000C000C000C000C0070
:101D22000C00060006001200120012000600060057
:101D32000600060006000600120012001200120041
:101D4200120012000A000A000A000A000A000A0031
:101D520003000300030006010B02DC00B801E900E6
:101D6200D2010000000006010B02DC00B801E9000C
:101D7200D20100000000AF005D01930026019C002B
:101D8200370100000000AF005D01930026019C00B6
:101D92003701000000003701150126011501370146
:101DA2003701D000C4001501060172015D01A500D2
:101DB200D201B8019F013701F700E900DC00D00031
:101DC20000000000000057454C434F4D450047417D
:101DD2004D454F5645522100594F55522053434FBE
:101DE200524520495320002573256400484947483D
:0C1DF2002053434F52452049532000006D
:00000001FF
