:040000000C948B00D1
:100004000C9453010C9457010C9400000C940000C0
:100014000C9400000C9400000C9400000C94A601B5
:100024000C9477010C9400000C9400000C940000D4
:100034000C9400000C9400000C9400000C9400003C
:100044000C9400000C9472010C9400000C940000B9
:100054001027E80364000A000100001000011000EA
:10006400010000000000FF0A43453A2534642A2AAF
:10007400002532643A2532643A2532643A253264E2
:10008400002534644D53300060016C01760130303A
:100094003A30303A30303A30300043453A3030303C
:1000A400302A2A0030303030303030002532643A83
:1000B4002532643A2532643A2532640043453A468F
:1000C400554C4C2A2A0043453A2534642A2A0025F3
:1000D40034644D533000253464555330000080C0DF
:1000E4000600040066000C006001920002007E011C
:1000F4008C000A006C019E00020080018E00080042
:100104007601A80002008201900002008601E2004C
:100114000000F894EE27ECBBF1E0FBBFEBBFE5BFBA
:100124008DE0A2E0BB27ED938A95E9F780E094E0A7
:10013400A0E6ED930197E9F7E4EEF0E0859195915F
:10014400009761F0A591B59105901590BF01F0015C
:1001540005900D920197E1F7FB01F0CFEFE5EDBFBC
:10016400E4E0EEBFC0E6D1E00C94B800789458D037
:10017400FFCFE0E0EABBEBBBE7BBE8BBEFEFE4BBE0
:10018400E0E0E5BBE0EFE1BBE0E0E2BB0895E3E0E3
:10019400E3BFE3E8E2BFE0E0ECBFE0E5EFBDE1E0B0
:1001A400EEBDE3E6EDBDE0ECECBDE0E0E7BDE6BDB1
:1001B400EBBDEABDE9BDE8BDE2BDE5BDE4BDE3BD1F
:1001C400E5E0E9BF0895EBB7E06EEBBFEAE0E5BF19
:1001D400E0E0E4BFE0EEEABF08950E94B904ECE673
:1001E400F0E00E94C0040E94CD04E5E7F0E0FA9339
:1001F400EA930E94D4040E94D4040E94D4040E946E
:10020400D40480E10E94CD0364960E94DB04E5E8F7
:10021400F0E00E94C0040E9432040E94E2043BC148
:10022400A8DFB5DFD0DFA0E10E947104D6DF089516
:100234000E943707AC85BD858E859F85E889F9893D
:100244006A897B890E9497067F936F93FF93EF934C
:10025400AC81BD818E819F810E942D070E949706EB
:10026400AF91BF918F919F910E94CD067F936F9321
:10027400FF93EF93AC85BD858E859F85E885F985D1
:100284006A857B850E949706AF91BF918F919F915C
:100294000E940A07AC81BD818E819F810E949206D3
:1002A40078C20E94ED04A3D079C0AA93EA93EFB771
:1002B400EA93A0918401A03011F4B59B01C004C05D
:1002C4005524442477246624B49902C0E1E001C093
:1002D400E0E0E0938401E991EFBFE991A9911895D9
:1002E4000E94ED0489B2B0D059C00E94ED04E3E845
:1002F400E2BFA0918501AA3031F0E0918501EF5F62
:10030400E093850120C0E0E0E0938501A0918401A1
:10031400A13009F451D00E94CD04E0EBF0E0FA934F
:10032400EA93E52D0E94FB04E42D0E94FB04E72DD3
:100334000E94FB04E62D0E94FB0480E10E94CD0391
:1003440064960E94E2042AC00E94ED040E94010502
:100354000E9408050E94CD05ADEBB7E386E895E35E
:100364000E94FB05A0E0B0E080E89FE30E94FB054B
:10037400DF01CB01E0E0F0E060E070E40E944906B8
:10038400A0E0B4E284EF9AE40E94FB050E94940585
:100394006F01ED2DF070EDBDEC2DECBDE991EFBFDB
:1003A400F991E991B991A991999189917991699179
:1003B400F990199009901895E3E6E615B1F46624CE
:1003C400EBE3E71581F47724E41559F44424E3E6D8
:1003D400E51521F0E52DF0E0319601C0E0E05E2E58
:1003E40001C0439401C0739401C063940895B79904
:1003F40003C0E0E0E91508F002C09A9407C0B3997D
:1004040003C0EAE09E1608F001C09394992059F4C1
:100414000E94B904E0ECF0E0FA93EA9380E00E94D1
:10042400CD0324960DC00E94B904EAECF0E0FA93DF
:10043400EA93E92D0E94FB0484E00E94CD032896F0
:10044400E0E00E941A0530C00E9401050E940805E0
:100454005F01D501E8EEF3E00E940F07309761F4E5
:100464000E94DB04E3EDF0E0FA93EA93D501E8EEB1
:10047400F3E00E94D20607C00E94DB04EAEDF0E03C
:10048400FA93EA93F501662777270E94320784E0FE
:100494000E94CD032896E0E00E941A050E946004A1
:1004A400A0918201B09183010E9460040895BA93DF
:1004B400AA931A930A93AA81BB8112960E942507D4
:1004C400309759F1AA81BB8114960E9425078F01A8
:1004D400309761F00230E0E01E0798F0F8013197A0
:1004E4008F01AA81BB811496ED93FC93AA81BB81F1
:1004F4001296ED91FD913196FE93EE933197AC8176
:10050400A083AA81BB810E942507FF232AF0ED91D5
:10051400FD913196FE93EE9306C0AA81BB81EFEF65
:10052400FFEFED93FC931981088125960895BA9302
:10053400AA9326970E943C0710E0AC85BD85E0E0B5
:10054400F0E0ED93FC93EA89FB893196EA8BFB8B0F
:100554003197E4912E2FE03009F415C1E12FE030FA
:1005640039F4253211F411E002C00E9423050AC1B6
:10057400E130A9F4253219F40E94230502C112E0E6
:1005840040E000E02D3211F401E0FCC02B3211F404
:100594004BE2F8C0203211F440E2F4C002C0E23071
:1005A40039F450E013E0203311F40068EBC003C0C9
:1005B400E33009F0E7C0203310F02A3308F007C015
:1005C400AAE05A9F502DE22FE0535E0FDBC0E22FCA
:1005D400E33649F40E942A05E889F989A481AA939B
:1005E4000E943005CEC0E33741F40E942A050E94E0
:1005F40036050E94A0041E2F0AC0E03761F40E9451
:100604002A050E9436050E94AC041E2F0860026071
:100614000F7730E034C0E43611F0E93611F40460A9
:1006240002C0E53731F4E4E5F0E0EE83FF8315E042
:100634000CC0E83511F4086003C0E83709F0A1C024
:10064400EEE5F0E0EE83FF8314E002FF14C00E94A5
:100654002A050E944005AB85AA233AF4EA85FB8566
:100664000E949C06EA87FB874DE2403011F01F5F31
:1006740001C00B7F04C00E942A050E94400500FDB2
:1006840011C0151778F407FF08C002FF04C00B7FE0
:10069400242F115001C020E301C020E20E94230551
:1006A4005150EFCF312F01FF17C03030A1F003FFBD
:1006B40006C0EE81FF812591EE83FF8305C0AE81E4
:1006C400BF812D91AE83BF830E942305503009F072
:1006D40051503150EACF4BC020E3EE81FF810E949C
:1006E4002907E887F987EE81FF813296EE83FF833D
:1006F400E885F985AA85BB85AE17BF0750F02F5F43
:10070400A885B985EA85FB85EA1BFB0BEA87FB878D
:10071400EFCF2A3328F003FF02C0295F01C0295D0F
:1007240004FD1AC0213320F4A885B985119709F472
:1007340009C0531710F000FF01C013C020E207FFE7
:100744000BC020E3006102FF07C00B7F4A930E94A5
:100754003005503009F051500E942305503009F003
:1007640051503150A885B985129708F0B5CF00FFD4
:1007740008C0503031F05150E0E2EA930E94300555
:10078400F8CF10E0E0CEAC85BD850E9425070E941D
:10079400430764960895FF92F82E26970E943E0719
:1007A4000E944805309719F4EFEFFFEF23C0DE01F4
:1007B40016960E948E068D010E944805EE83FF83E3
:1007C400E0E0E887E987DE011A960E948E060E941F
:1007D4002507FA93EA931A930A93E9E5F2E0FA9368
:1007E400EA93DE011A96A3DE9F01AE81BF81E0E0A9
:1007F400EC93F9010E9445072A96FF900895AA9365
:10080400E5B3EF70AE2FE881E07FEA2BE5BB8DE026
:100814008A95F1F7AA9A8DE08A95F1F7AA988DE066
:100824008A95F1F789C0AA93A881E9DFE881E29566
:10083400E883A881E4DF85E88A95F1F77DC0AA936F
:10084400E881F0E0EA57FE4FE081A981AE0FEBDFCB
:10085400E981E0938A01E881E0938B01229608956F
:10086400A2E00E944F05ACE0DEDFA1E00E944F054C
:10087400E0E0E0938B01E0938A010895AA93A881B4
:10088400AA3031F0E0918C01A0918A01AE1760F09A
:10089400E0E0EA93A0918B01AF5FA0938B01CFDFDF
:1008A400A881AA3009F448C0E0918A01EF5FE0937F
:1008B4008A01A89AA881B7DFA8983EC0BA93AA93E0
:1008C4001A93A981BA81ED91A983BA831E2FE030CE
:1008D40019F0A12FD3DFF5CF188123960895AA9399
:1008E400E4B3E06FE4BBA29AA09AA19AAA98A8984C
:1008F400A998E881E0938C01E058E0938801E881AD
:10090400E054E0938901A4E1B0E00E945D050E94F7
:1009140055050E9455050E945505A0E270DF88EC3C
:1009240090E00197F1F7A8E27EDFA4E07CDFA5E880
:100934007ADFA6E078DF94DF21960895BA93AA932C
:10094400A991B991EE27FF276D91662311F0319695
:10095400FBCF0895BA93AA93AA27BB27E991F991EB
:100964000590002011F01196FBCFFD010895E09150
:100974008001F0918101FA93EA930895FA93EA933E
:10098400EAE0F0E060E070E00E94320784E00E9458
:10099400CD0328960895E0917E01F0917F01FA93AA
:1009A400EA930895E0E0F0E060E070E00E9432072E
:1009B4000895E0918201F0918301FA93EA930895F6
:1009C400E0E0EA93A0E00E942104A0917E01B091AE
:1009D4007F010C9460040A921A92FA926A937A93B1
:1009E4008A939A93AA93BA93EA93FA93EFB7EA9302
:1009F4000895FF27662777270E9432070895E82D78
:100A0400F0E00E94A8060E943207CCCFEFEFF0E09E
:100A140060E070E00E943207E1E0F0E060E070E046
:100A24000E943207A0E1B7E280E090E00C941A0142
:100A3400EA93A1E00E942104A0918001B091810178
:100A440008952A93AD85BE85EF85F88909950895A3
:100A5400E889F9893497E88BF98B0895AD85BE85CB
:100A6400EF85F88909950895A889B98914960E9493
:100A74002507EE83FF83AE81BF810895A889B989D4
:100A840014960E942507EA87FB870895DE011C96C9
:100A94000E948E060E94250708950E941504A3E073
:100AA400B0E00C945D05A0E30E94010488EC90E0A2
:100AB4000197F1F70895109639F080ED97E00197CA
:100AC400F1F7A8951197C9F70895552342F45038C2
:100AD40011F4E0FF04C03196691F791F6BF050E8F0
:100AE400572711F45F9373C05F3F31F0660F000C1A
:100AF40057956795752F08955F9300200AF073C08A
:100B04006CC050E8192E1522880F991F9527550F90
:100B1400879550E8072E0522660F771F7527550F16
:100B240067950895689401C0E8945F93F2DF703884
:100B340018F07F3F08F44BC056E1571BAAF45195B7
:100B440058300EF4593030F0EFEFFFEF6FEF7FE7DE
:100B540077F91AC077275523B9F0EE0FFF1F661FE8
:100B6400771F5A95D1F710C07727583028F0EF2F08
:100B7400F62F672F5850F9CF552331F076956795A6
:100B8400F795E7955A95D1F700200AF4D7D05F91ED
:100B94000895689401C0E894309760407040B1F0C3
:100BA400002426F0772312F40094C8D0172E7EE197
:100BB400112032F07A95EE0FFF1F661F111CF9CF3A
:100BC400EF2FF62F612D5F938ADF5F910895EE2753
:100BD400FF27662777275F910895EFEFFFEF6FE711
:100BE4007FEF5F910895EFEFFFEF6FE77FE75F918E
:100BF40008955F9386DF703851F3903841F30124F0
:100C04000894791F23F41CF300203AF3ECCF0F92DD
:100C14001F932F933F934F93112722279927689F60
:100C2400A0018F9F302D410D591F6B9F300D411D29
:100C3400591F8E9F27D0BF9F25D06A9F23D0BE9F68
:100C44001DD0AF9F1BD0AE9F110D291F391F491F07
:100C5400591FE32FF42F652F522F4F913F912F915E
:100C64001F910F9066232AF0550FEE1FFF1F661F7A
:100C740002C073954BF229DF5F910895100D211D79
:100C8400391F02C0200D311D491F591F08955F935C
:100C940038DF703821F411200AF49FCFA4CF9038A4
:100CA40009F495CF01240894970B1BF4D4F3002086
:100CB400F3CF792F1F932F933F934F931124112731
:100CC400222733274427552790E2AE17BF0786070C
:100CD400410730F0AE1BBF0B860B410B089401C0DB
:100CE4008894551F221F331F111CAA1FBB1F881F66
:100CF400441F9A9551F7F901612D4F913F912F911E
:100D04001F91662332F0550FEE1FFF1F661F7A9561
:100D140043F2DBDE5F9108950024AF0DB01D08950A
:100D2400EA0FFB1F681F791F0895EA1BFB0B680B72
:100D3400790B0895F195E195F0400895F09560954B
:100D44007095E195FF4F6F4F7F4F08956F2F660F9A
:100D5400660B762F08957A9F702D6B9F700DF89F08
:100D6400700DE99F700D6A9F602D710DFB9F600DE2
:100D7400711DE89F600D711D8827FA9FF02D610D8C
:100D8400781FEB9FF00D611D781FEA9FE02DF10D98
:100D9400681F781F089544D0DEDF0EF4CFDF089576
:100DA4000024112490E1AA0FBB1F001C111C0E1A71
:100DB4001F0A18F40E0E1F1E01C0A1609A9599F720
:100DC400FD01D00108953F934F935F9300241124B4
:100DD4004427552730E2AA0FBB1F881F991F001C08
:100DE400111C441F551F0E1A1F0A460B570B28F4DB
:100DF4000E0E1F1E461F571F01C0A1603A9559F7DA
:100E0400FD01BC01D001CA015F914F913F9108954A
:100E140007D0D9DF0EF492DF0895C2DFFD010895F3
:100E2400E89477FF02C08ADF689497FF0BC0002420
:100E3400A095B095809590951196801D901D00F811
:100E4400039400FA0895ED91FC911197089505908B
:100E5400F491E02D0895E881F9816A817B810895F8
:100E64007A936A93FA93EA9308959A938A93BA9336
:100E7400AA9308955A934A933A932A931A930A93F6
:100E840008955D814C813B812A81198108810895EF
:00000001FF
