:0C0000000C9478000C9400000C9400009C
:10000C000C9400000C94F0000C9400000C94000074
:10001C000C9400000C9400000C9400000C94000054
:10002C000C9400000C9400000C9400000C94000044
:10003C000C9400000C9400000C9400000C94000034
:10004C000C94D5000C94000000003930303020287E
:10005C0072706D290044757479204379636C652046
:10006C003D203130250044757479204379636C65EB
:10007C00203D203330250044757479204379636C1E
:10008C0065203D2035302500447574792043796313
:10009C006C65203D203730250044757479204379F8
:1000AC00636C65203D203930250080C002000400BF
:1000BC0054000B006001560008006B015900110040
:1000CC00730161001100840172001100950183001D
:1000DC001100A60194001100B701A5000200C8018F
:1000EC00B6000000F894EE27ECBBF1E0FBBFEBBFD1
:1000FC00E5BF8DE0A2E0BB27ED938A95E9F780E0A0
:10010C0094E0A0E6ED930197E9F7E8EBF0E0859138
:10011C009591009761F0A591B59105901590BF014F
:10012C00F00105900D920197E1F7FB01F0CFEFE59F
:10013C00EDBFE4E0EEBFC0E6D1E00C94A50028D002
:10014C000E946D010E948C010E949101FFCFE0E0A2
:10015C00EABBEBBBEFEFE7BBE0E0E8BBEFEFE4BBE8
:10016C00E0E0E5BBE3E0E1BBE0E0E2BB0895E5E6FF
:10017C00E3BFE0E0E2BFEAE1ECBFE0E0E2BDE7E0D4
:10018C00E5BDE2EBE4BDE0E0E3BDE2E4E9BF0895E8
:10019C00DEDFA0E10E94F301EADF789408950A9271
:1001AC001A926A937A938A939A93AA93BA93EA933C
:1001BC00FA93EFB7EA933CD17CBEE991EFBFF9918A
:1001CC00E991B991A9919991899179916991199034
:1001DC00099018950A921A92FA926A937A938A93D2
:1001EC009A93AA93BA93EA93FA93EFB7EA93E2E35A
:1001FC00E515F8F04CD1E881E03011F4C49801C059
:10020C00C49AEB81E03011F4C59801C0C59AEA811B
:10021C00E03011F4C69801C0C69AE981E03011F4BF
:10022C00C79801C0C79AE1E04E2E9098919A2496F7
:10023C0027C0E4E6E51518F4E6E9E51508F41EC058
:10024C0026D1EA81E03011F4C49801C0C49AE98146
:10025C00E03011F4C59801C0C59AE881E03011F482
:10026C00C69801C0C69AEB81E03011F4C79801C062
:10027C00C79A4424909A9198249602C09098919889
:10028C00552019F0E5E6E51521F413D1A0E6B1E00F
:10029C0006C0E3E3E51521F40CD1ABE6B1E08CD05C
:1002AC00E52DF0E03196DF01E6E9F0E00E94E30392
:1002BC005E2EE991EFBFF991E991B991A9919991CC
:1002CC00899179916991F990199009901895F6D0C6
:1002DC00A3E7B1E071D0EAE1ECBFF0D0A4E8B1E063
:1002EC006BD0EDE4ECBFEAD0A5E9B1E065D0E0E875
:1002FC00ECBFE4D0A6EAB1E05FD0E2EBECBFDED01D
:10030C00A7EBB1E059D0E5EEECBF089591D0E0E059
:10031C00E2BF7CBE0895C49AC598C698C798089544
:10032C00AA93E5B3EF70AE2FE881E07FEA2BE5BB33
:10033C008DE08A95F1F7AA9A8DE08A95F1F7AA9843
:10034C008DE08A95F1F772C0AA93A881E9DFE88164
:10035C00E295E883A881E4DF85E88A95F1F766C029
:10036C00AA93E881F0E0E853FE4FE081A981AE0F3B
:10037C00EBDF6980988022960895A2E0A6D0ACE0CD
:10038C00E3DFA1E0A2D0E0E09E2E6E2E0895AA93AA
:10039C00A881AA3011F0681448F0E0E0EA93939435
:1003AC00A92DDEDFA881AA3009F440C06394A89A75
:1003BC00A881CADFA8983AC0BA93AA931A93A981C4
:1003CC00BA81ED91A983BA831E2FE03019F0A12FC9
:1003DC00DEDFF5CF188123960895AA93E4B3E06F7E
:1003EC00E4BBA29AA09AA19AAA98A898A9988880E6
:1003FC00E881E058E093CA01E881E054E093CB0136
:10040C00A4E1B0E00E94770265D064D063D0A0E292
:10041C0087DF88EC90E00197F1F7A8E295DFA4E084
:10042C0093DFA5E891DFA6E08FDFA7DF2196089583
:10043C0079B2E72DF0E00E94CB030E94E702ACE515
:10044C00BFE882EC9EE30E947103A0E0B0E080EA7A
:10045C0090E40E9421030E94AE027E2EF0E00E94E6
:10046C00CB030E94E702AAE0B7ED83E290E40E947E
:10047C007103DF01CB01E0E0F0E060E87FE30E9474
:10048C00F1030E941A030E94AE027E2E0895249757
:10049C00E0E0C499E1E0EB83E0E0C599E1E0EA83B8
:1004AC00E0E0C699E1E0E983E0E0C799E1E0E883A8
:1004BC00089563DFE0E0EA93A0E052CFA8E8B3E14F
:1004CC000E947702E0E0E2BF58CF3EDFA3E0B0E04D
:1004DC000C947702A0E324DF88EC90E00197F1F70D
:1004EC000895109639F080ED97E00197F1F7A895F3
:1004FC001197C9F70895552342F4503811F4E0FFD1
:10050C0004C03196691F791F6BF050E8572711F41E
:10051C005F93CFC05F3F31F0660F000C5795679526
:10052C00752F08955F9300200AF0CFC0C8C050E823
:10053C00192E1522880F991F9527550F879550E86E
:10054C00072E0522660F771F7527550F679508959F
:10055C00689401C0E8945F93F2DF703818F07F3F25
:10056C0008F4A7C056E1571BAAF4519558300EF465
:10057C00593030F0EFEFFFEF6FEF7FE777F91AC0EC
:10058C0077275523B9F0EE0FFF1F661F771F5A957B
:10059C00D1F710C07727583028F0EF2FF62F672FA0
:1005AC005850F9CF552331F076956795F795E79527
:1005BC005A95D1F700200AF4E0D05F910895689421
:1005CC0001C0E894309760407040B1F0002426F0F0
:1005DC00772312F40094D1D0172E7EE1112032F043
:1005EC007A95EE0FFF1F661F111CF9CFEF2FF62F18
:1005FC00612D5F938ADF5F9108954F93AF01FD01E9
:10060C00DA01AB01BC01CA01402D012C142E4F9113
:10061C000895EA0FFB1F681F0895E095F09560950B
:10062C00EF5FFF4F6F4F08955F9381DF903871F14B
:10063C0050E8152604C05F937ADF903839F1703892
:10064C0021F1572F591B2BF112F4D7DFFACF583168
:10065C0018F0AA27BB278827583028F0AB2FB82FC3
:10066C0088275850F9CF552329F08695B795A7952B
:10067C005A95D9F7502D512572F0CBDF38F4679588
:10068C00F795E795739513F420C0B7DF3EDF5F91C4
:10069C000895D8F7FBCFEA1BFB0B680B51F010F455
:1006AC000094BBDF662392F3EE0FFF1F661F7A9553
:1006BC00CBF7EE27FF27662777275F910895EFEF9B
:1006CC00FFEF6FE77FEF5F910895EFEFFFEF6FE7BD
:1006DC007FE75F9108955F932ADF703851F390386C
:1006EC0041F301240894791F23F41CF300203AF3FE
:1006FC00ECCF0F921F932F933F934F9311272227E9
:10070C009927689FA0018F9F302D410D591F6B9F1A
:10071C00300D411D591F8E9F27D0BF9F25D06A9F3A
:10072C0023D0BE9F1DD0AF9F1BD0AE9F110D291F94
:10073C00391F491F591FE32FF42F652F522F4F914B
:10074C003F912F911F910F9066232AF0550FEE1FAA
:10075C00FF1F661F02C073954BF2CDDE5F910895AB
:10076C00100D211D391F02C0200D311D491F591FAD
:10077C000895F195E195F0400895F0956095709588
:10078C00E195FF4F6F4F7F4F08956F2F660F660BEC
:10079C00762F08950024112490E1AA0FBB1F001C92
:1007AC00111C0E1A1F0A18F40E0E1F1E01C0A16098
:1007BC009A9599F7FD01D0010895E894B7FF04C00C
:1007CC00A095B09511966894F7FDD3DFE3DFFD019A
:1007DC000EF4CFDF0895182E862F612D192E972F2A
:1007EC00712D1B2EBF2FF12D1A2EAE2FE12D08953A
:00000001FF
