:0E0000000C947D060C9400000C9400000C94EF
:10000E0000000C9400000C9400000C9400000C9462
:10001E0000000C94A0070C9400000C9400000C94AB
:10002E0000000C9400000C9400000C9400000C9442
:10003E0000000C9400000C9400000C9400000C9432
:10004E0000000C9400000507206000000000000076
:10005E00005F00000007000700147F147F14242A9D
:10006E007F2A122313086462364955225000050375
:10007E000000001C2241000041221C00082A1C2AFC
:10008E000808083E08080050300000080808080854
:10009E00003030000020100804023E5149453E0059
:1000AE00427F400042615149462141454B3118146F
:1000BE00127F1027454545393C4A4949300171099F
:1000CE0005033649494936064949291E0036360088
:1000DE0000005636000000081422411414141414A3
:1000EE0041221408000201510906324979413E7E2F
:1000FE001111117E7F494949363E414141227F41CE
:10010E0041221C7F494949417F090901013E414174
:10011E0051327F0808087F00417F41002040413F57
:10012E00017F081422417F404040407F0204027F3D
:10013E007F0408107F3E4141413E7F090909063E7A
:10014E004151215E7F09192946464949493101012C
:10015E007F01013F4040403F1F2040201F7F20185D
:10016E00207F631408146303047804036151494526
:10017E004300007F4141020408102041417F0000EE
:10018E0004020102044040404040000102040020ED
:10019E00545454787F4844443838444444203844B6
:1001AE0044487F3854545418087E090102081454E8
:1001BE00543C7F0804047800447D40002040443DB8
:1001CE0000007F10284400417F40007C0418047812
:1001DE007C0804047838444444387C141414080809
:1001EE001414187C7C080404084854545420043F0A
:1001FE004440203C4040207C1C2040201C3C403091
:10020E00403C44281028440C5050503C4464544CFC
:10021E0044000836410000007F000000413608000F
:10022E0002010204027F4141417F81003F00000034
:10023E0000000000000000000000000000000000B0
:10024E0000000000000000000000000000000000A0
:10025E00000000000000000000000000FFFFFE3E56
:10026E003E6ECC0C1C1C38F8F0F87C1F0F030107F7
:10027E000F1E3CF8F8FC8C0E0607771F0F07BFFF0A
:10028E00F880808080C000000000000000000000A8
:10029E000000000000000000000000000000000050
:1002AE000000000000000000000000000000000040
:1002BE000000000000000000000000000000000030
:1002CE000000000000000000000000000000000020
:1002DE000000000000C08080C0C0C0C0E0E0FFFF92
:1002EE00F0E0E0E1E3C0C0809FFFFFC0000000002F
:1002FE00F0C0000000FFFFFFF0F83C1E0E070707DE
:10030E000707030303FFFFFC30303030F0F0F0F04E
:10031E00703000000000000000000000000000002F
:10032E0000000000000000000000000000000000BF
:10033E0000000000000000000000000000000000AF
:10034E00000000000000000000000000000000009F
:10035E000000000000000003879FFFF9E18100000C
:10036E000000002041C18183838FDFFFFFFFFEFC71
:10037E00FCFFFFFEFCFCFFFFFFFBF0F0FC8C86C3D6
:10038E00C1E0F0F87C7E7F3330383A33397F7F67B7
:10039E00E1C0C0C00000000000000000000000002E
:1003AE00000000000000000000000000000000003F
:1003BE00000000000000000000000000000000002F
:1003CE00000000000000000000000000000000001F
:1003DE00004060F0F8FCFE7733332121018183C7A2
:1003EE00CEDCFCF8F8787878F9FFFFFFFFFFFFFF0F
:1003FE00FFFFFFFFFFFFFFFFFFFFFFFFFFFFFFFFFF
:10040E00FBDBCDCC84848480C0C0C0E0E0F07038CB
:10041E003E7FE3C1C080000000000000000000002D
:10042E0000000000000000000000000000000000BE
:10043E0000000000000000000000000000000000AE
:10044E00000000000000000000000000000000009E
:10045E00000000000000010303C7E7FE3E1F0F036C
:10046E000301012030101818180F9FFFFFFFFFFF28
:10047E00FFFFFFFFFFFFFFFFFFFFFFFFFFFFFFFF7E
:10048E009F1F19333323030307070F1F3D79F0E036
:10049E00F038381F0F0F07070200000000000000A1
:1004AE00000000000000000000000000000000003E
:1004BE00000000000000000000000000000000002E
:1004CE00000000000000000000000000000000001E
:1004DE00000000000000080C0E0F1F1D1C181898BD
:1004EE00F8F838181818181C1CCEFFFFFF0F03035E
:1004FE0007C7FF3F0F0F0F1FFFFFFF07071F3143F8
:10050E00070F1F3E7EFCF8B83030783838387CFC48
:10051E00DD0F0F0E0C0000000000000000000000B8
:10052E0000000000000000000000000000000000BD
:10053E0000000000000000000000000000000000AD
:10054E00000000000000000000000000000000009D
:10055E00000000000000000000000000000000800D
:10056E00FFFFE1E0F0FCEEE1E0F07FFFFFFFC000F7
:10057E00000003000080C0E0FC1F3FFFFCE0C080D5
:10058E00000000000000E3FFFF7E6061E3E6ECF890
:10059E00FFFF00000000000000000000000000004F
:1005AE00000000000000000000000000000000003D
:1005BE00000000000000000000000000000000002D
:1005CE00000000000000000000000000000000001D
:1005DE00000000000000000000000000000000000D
:1005EE0003010101000000000000000000031F7F56
:1005FE007E3C3C1E0E0F0F1F3D3870767C717B3F8C
:10060E000F070E0E1C3C7F7F0F0100000000000044
:10061E0000000000000000000000000000000000CC
:10062E0000000000000000000000000000000000BC
:10063E000000000000008A005300000000000000CF
:10064E00000000000000000000000000000000009C
:10065E00000000000000000000000000000000008C
:10066E00000000000000000000000000000000007C
:10067E0000000000000000808080000000000000EC
:10068E0000000000C040C0C000000000000000805C
:10069E00C0C0C08000F0F8FC0000000000000000A8
:1006AE00000000000000000000000000000000003C
:1006BE0000000080808000000000000000000000AC
:1006CE00000000000000000000000000000000001C
:1006DE00000000000000000000000000000000000C
:1006EE0000000000000000000000000000000000FC
:1006FE0000000000000000000000000000000000EC
:10070E00070F0F0F0700000000000C3E7C78787872
:10071E00787878383C3C78787F7F383838390805D7
:10072E003F7F787878787878787878787878783EA7
:10073E0078783E78783F000000000000070F0F0F1A
:10074E000700000000000000000000000000000094
:10075E00000000000000000000000000000000008B
:10076E00000000000000000000000000000000007B
:10077E00000000000000000000000000000000006B
:10078E00000000000000000000000000000000005B
:100C2E000000000000000000000103070F1F3F7FBF
:100C3E00FF001027E80364000A0001000010000105
:100C4E00100001000A140001600120203A20203A11
:100C5E0020200025643A25643A25642020200036A1
:100C6E000033003900313200FF008100F100E30053
:100C7E00E300F1008100FF00FF00A100A100AD0024
:100C8E00AD008D008D00FF00FF008100F100E3003C
:100C9E00E300F1008100FF00FF00A100A100AD0004
:100CAE00AD008D008D00FF0001002D4E414E00491C
:100CBE004E46000006000400520C09006001580C5C
:100CCE00020069015F0C02006B016D0C02006D01E8
:100CDE006F0C02006F01710C03007101730C3F0069
:100CEE009101760C0100D401B60C0000F894EE27A9
:100CFE00ECBBF1E0FBBFEBBFE5BF8DE0A2E0BB2795
:100D0E00ED938A95E9F780E094E0A0E6ED930197E4
:100D1E00E9F7E2ECFCE085919591009761F0A591E1
:100D2E00B59105901590BF01F00105900D920197B8
:100D3E00E1F7FB01F0CFEFE5EDBFE4E0EEBFC0E67B
:100D4E00D1E00C94AA0638D00E943308A8EBBBE081
:100D5E000E9497160E943D08AAE00E94F407FCCF5D
:100D6E00FFCFE0E0EABBEBBBE7BBE8BBE4BBE5BB18
:100D7E00E1BBE2BB08952697E4E5F0E0E883F98352
:100D8E00E0E0EA83EB83EC83ED83DE010E94C10891
:100D9E000C94C209E0E0EFBDE4E0EEBDE5E8EDBD88
:100DAE00EEEEECBDE0E0E7BDE6BDEBBDEABDE9BDB4
:100DBE00E8BDE4E0E9BF0895D4DFDDDF08950E94C9
:100DCE00B514E7EAF7EE6EE87CE30E94B4170C94D4
:100DDE004909AA93E881E03069F40E94BA14A0E0B0
:100DEE00B0E088EE91E40E94CE14A0E0B0E088EE70
:100DFE0091E434C0A881A13069F40E94BA14A0E035
:100E0E00B0E088EC91E40E94CE14A0E0B0E088EC53
:100E1E0091E424C0A881A23071F5E0E2EA93EFE1FB
:100E2E00EA93EB810E94E9140E948C13A0E0B0E0DB
:100E3E0080EA91E40E94B417A0E0B0E080E092E472
:100E4E000E9464170E94F116EA93EC810E94E91445
:100E5E000E940E14A0E0B0E080EA91E40E94B41764
:100E6E00A0E0B0E088EF91E40E94F7140E94F11622
:100E7E00AE2F0E94450D229608950E9425090E94CC
:100E8E00FC14E4E4F6E0FA93EA93A0E00E94F10C7D
:100E9E005A92A0E09EDF4A92A1E09BDF7A92A2E0F6
:100EAE0098DF9A928A92E1E6FCE0FA93EA93E72DB4
:100EBE000E940015E42D0E940015E52D0E940015DC
:100ECE008CE00E94A5116096E6E4EA93EEE1EA93C7
:100EDE00D4010E94DC0C0E94FC14A9E6B1E00E9431
:100EEE00DC0CE0E2EA93E2E3EA93ABE6B1E00E94C7
:100EFE00DC0CE2E3EA93E0E2EA93ADE6B1E00E94B5
:100F0E00DC0CE4E0EA93E0E2EA93AFE6B1E00E94A3
:100F1E00DC0CEBE1EA93E3E0EA93A1E7B1E00E9497
:100F2E00DC0CE0E2EA93EFE1EA93AEE10E942610D8
:100F3E0008950A921A92FA926A937A938A939A93DE
:100F4E00AA93BA93EA93FA93EFB7EA93E5E8EDBD65
:100F5E00EEEEECBD5394ECE3E51551F455244394B9
:100F6E00E41531F444247394ECE0E71509F4772486
:100F7E0084DFE991EFBFF991E991B991A991999126
:100F8E00899179916991F990199009901895AA9380
:100F9E00A981BB27EA81F0E0AE1BBF0BE881F0E030
:100FAE00AE17BF071CF4E0E00C94360DE1E00C9494
:100FBE00360DAA93E0E0F0E060E070E40E94EA18DB
:100FCE00EC81FF27662777270E942A17DF01CB01C6
:100FDE000E943A130E94F116B8C0AA93AA24E8817F
:100FEE00AE16C8F56624E0E16E1698F5B62CE62D21
:100FFE00F0E07096AB2DB0E0AE17BF0744F56A92E5
:10100E00BA92A8E0C4DFE03011F4979801C0979A25
:10101E00AB2DBB27E62DF0E00E94FA18EA1BFB0B66
:10102E00A7E0B0E00E94C418AE2FC3DFEBBBEB2DE0
:10103E00A1E9B1E0F0E0EE0FFF1FAE0FBF1FEC9184
:10104E00E8BBA3E0B0E00E949716B394D0CF6394B0
:10105E00CACFA394C4CF79C00E94FC14E8E3F2E097
:10106E00FA93EA93A0E00E94F10C08950E94D10633
:10107E00789403DF08950000909A000008959098E8
:10108E009498959808951A93F6DF13B39098E12FDC
:10109E0019910895AA931A93E0E0E4BB919A92985D
:1010AE00E981EF5F1E2F10FF02C0949A01C0949841
:1010BE0011FF02C0959A01C09598E5DFE078E9F737
:1010CE001881DAC4AA93A981E5DF0E940615D4C45B
:1010DE00E091D201EA93E091D101EF73E064AE2F7B
:1010EE00F1DFE091D201EA93E091D301E86BAE2FEC
:1010FE00E9DF0895AA93E981E093D101E295EF70BB
:10110E00E695E695E093D201E881E093D301E0DF26
:10111E00B3C4A091D101AF5FA093D101A03818F054
:10112E00E0E0E093D101E091D101EF7331F4E09171
:10113E00D101EA93A091D301DDDF0895AA93A09186
:10114E00D201A8DF929A0E94061521960895A091C9
:10115E00D201A0DFE0E0E4BB919A929A94DF089569
:10116E00AA93E981EA93E9810E940F15F0DFB0DFBF
:10117E00EEDF82C4BA93AA931A93889A899A8A9AAE
:10118E008B9A939A8C9A8D9A7ADF9398A4E6B0E014
:10119E000E949716939A10E0123040F41A93AFE320
:1011AE0091DF1A931395A0EC8DDFF6CFE1E0E0937B
:1011BE007401E0E0E0937501E981FA813097A9F0BE
:1011CE00A981BA810E94CE18E0937801F09379013B
:1011DE0012960E94CE18E0938D01F0938E01A98194
:1011EE00BA8114960E94CE180AC0E0E0F0E0E093B7
:1011FE007801F0937901E0938D01F0938E01E093E5
:10120E008F01F0939001E1E0E0937A01E0937B018E
:10121E00E0937C01EFEFE0937D01E1E0E093840148
:10122E00E5E8F1E0FA93EA93EFEFEA93A8E0B0E095
:10123E000E941B1403D0E1E0188111C40E943319DF
:10124E0000E030E0E0917501E03009F00FEF38304A
:10125E0078F4E0E0EA93A32F3F5F4CDF10E0A12F7C
:10126E001F5FA03820F4A02F0E941515F8CFEFCFE6
:10127E00E0E0EA93A0E03EDFE0E0EA93A0E0F1D305
:10128E000E943A1924960895AA931A930A93AC8150
:10129E00A03818F4AB81A03418F01981088198C3D6
:1012AE00EC81EA93AC815CDF1E2F12DFEB81E770DD
:1012BE00A1E00E9477180E2FEA81E03011F0102B7A
:1012CE0003C0E02FE0951E23A12F38DF198108817E
:1012DE007FC3AA93A981A03818F4A881A03410F076
:1012EE00E0E0CAC3E981EA93A9813ADF1E2EE881C4
:1012FE00E770A1E00E947718E12111F0E1E001C052
:10130E00E0E0BAC3AA931A93ED81EA93AD8128DF88
:10131E001E2FDEDEE981E73011F0E83039F4EB8183
:10132E00EA93AA810E944F14EB8308C0E33021F4A4
:10133E00EB81E095EB8302C0E03021F4EA81E09589
:10134E001E2302C0E23029F4EA81AB81EA231E2B70
:10135E000EC0E13029F4EA81AB81EA231E2707C0D3
:10136E00E43029F4EA81E095AB81EA2B1E23A12F0C
:10137E000E941515188126960895AA9323970E9408
:10138E003119A889A03848F4AF85A03430F4AE8561
:10139E00A03019F0AD85A03009F4C8C1EE85E887FC
:1013AE00A889BB27EE85F0E0AE0FBF1FA138E0E0A5
:1013BE00BE0720F0A889E0E8EA1BEE872D85AF85F1
:1013CE00BB27ED85F0E0AE0FBF1FA134E0E0BE07F6
:1013DE0020F0AF85E0E4EA1BED87A985A63009F081
:1013EE005BC0EC85E13009F4A1C1E33039F4E09142
:1013FE008F01F0919001309709F498C10885ED8521
:10140E00E695E695E6953E2FE22FE77019F4AD8549
:10141E002A17E9F0A02FBB27E32FF0E00E949C18BB
:10142E00AA85BB850E941915269526952695532FBC
:10143E005F935F5FE22FAF91EA1748F0102FE12F15
:10144E001150E03019F00E941E15F9CFF1CFAE8584
:10145E000A1711F1EE85AA85BB85F0E00E941915D9
:10146E00ED85E77009F03F5F20E02F932F5FE32FAC
:10147E00AF91AE1788F41E851F931F5FE02FAF91BB
:10148E00AE1718F40E941E15F7CFEE85AE81BF8100
:10149E00F0E00E941915E9CFEF85E7703E2FED853C
:1014AE00E03009F443C1EA85FB85EE83FF8310E04B
:1014BE000889303009F065C0AD85A83008F45CC0ED
:1014CE00E985E03011F0E33009F402C0E73009F4A9
:1014DE0002C0E83009F402C0E63009F402C0E93077
:1014EE0009F402C0EA3021F40A93E8890E940F152C
:1014FE001F931F5FEE85AF91AE17B8F5A985A63085
:10150E0061F425DEE5DD0E942B15FA93EA931FDECA
:10151E00AE2F0E949614FDDD27C0E985E93011F447
:10152E0050E00EC0EA3011F45FEF0AC00E942B1596
:10153E000E9434155E2FE985E73011F0E83021F472
:10154E000E943A155E2F06C0E33011F4509502C08A
:10155E00E03021F4A52F0E94151506C00E943E15FD
:10156E00EFEFEA93AD85CEDEC3CFEF85E85FEF8771
:10157E00ED85E850ED87D1C05D8520E0E0E0ED8798
:10158E007AC0E32FAD85AE0FA93020F42D85E0E0B3
:10159E00ED8703C0E8E0E31B2E2F3A93A22F0E94A3
:1015AE0044144E2FE985E630F1F41F931F5FEE854C
:1015BE00AF91AE17B8F40E944415AE2FE32F0E94E0
:1015CE007F180E944B15E32FA42F0E947F18E095E1
:1015DE00E1215E2B0E942B15FA93EA93A52F0E9410
:1015EE009614E3CF2CC0E93011F450E003C0EA307A
:1015FE00A9F45FEF0E943A15AE2FE32F0E947718E1
:10160E005E2F1F931F5FEE85AF91AE1730F40E94D1
:10161E003E154A93A0E076DEF4CF11C01F931F5FF4
:10162E00EE85AF91AE1758F40E945615AE2FE32FEC
:10163E000E947718EA934A93AD8564DEEFCFED856D
:10164E00E03009F473C0AD85A83028F4ED85E21BB7
:10165E005E2FE0E003C0532FED85E850ED8710E0DC
:10166E00EF85E85FEF87E8E0E31B2E2F0889EA8518
:10167E00FB85EE83FF83E52FF0E0EA5CF34F4491A8
:10168E00E985E630F1F41F931F5FEE85AF91AE173B
:10169E00B8F40E944415AE2FE22F0E9477180E94D4
:1016AE004B15E22FA42F0E947718E095E1215E2BB7
:1016BE000E942B15FA93EA93A52F0E949614E3CF5E
:1016CE002CC0E93011F450E003C0EA30A9F45FEF0A
:1016DE000E943A15AE2FE22F0E947F185E2F1F93A5
:1016EE001F5FEE85AF91AE1730F40E943E154A9300
:1016FE00A0E008DEF4CF11C01F931F5FEE85AF91FF
:10170E00AE1758F40E945615AE2FE22F0E947F1886
:10171E00EA934A93AD85F6DDEFCFE885AA85BB85C2
:10172E00F0E0EA0FFB1FEA87FB87B9CE0E9438195B
:10173E00619608950E9463151CF0E0E0F0E09CC1F4
:10174E00A881B981A038E0E0BE071CF0EFE7F0E019
:10175E0093C1E881F98190C10E9463151CF0E0E00D
:10176E00F0E08AC1A881B981A034E0E0BE071CF088
:10177E00EFE3F0E081C1E881F9817EC1AA93E981AE
:10178E00EA93E981EA93A09174017EDD75C1AA9373
:10179E001A93AA81A03818F4A981A03420F00E94CF
:1017AE006A1518815CC1E981E7701E2FE981E69503
:1017BE00E695E695E983103011F0EF5FE983AA8193
:1017CE00BB2788279927E981FF27662777270E945D
:1017DE00A418EC5FFF4F6F4F7F4F188140C1BA9333
:1017EE00AA9323970E946F158F01002E012A19F4D8
:1017FE00E0E0F0E05FC00E9476150F820E94761541
:10180E000E820E9476150886EB85A885EA1718F4D5
:10181E00E0E0F0E04FC0F8010F5F1F4F5491A88534
:10182E00BB27EE27A50FBE1FEB85F0E0EA17FB07DF
:10183E0018F0E0E0F0E03EC0EE81E695E695E69524
:10184E004E2FEE81E77009F04F5FEF81E030A1F08F
:10185E00A985BA85EC93A885EB85EA1BF0E0DF013C
:10186E00EF81F0E00E949C18DF01E42FF0E00E946F
:10187E009C18E00FF11F1EC09801E52FF0E00E0F2F
:10188E001F1FA885AF5FA887A150EB85AE1760F428
:10189E00F9012F5F3F4FA491B0E0E42FF0E00E94DA
:1018AE009C180E0F1F1FEDCFF901E491A985BA8583
:1018BE00EC93F8010E9438192C960895E0E0E0931D
:1018CE007601A0917701BB270E947B15F0E0AE0F49
:1018DE00BF1FE0917B01F0E0AE0FBF1F3DDFE09335
:1018EE0077010895AA9321970E946F15309709F4F6
:1018FE0057C0AF81AA3009F44FC0EF81EA93DE01E1
:10190E0017966DDFAF01309719F40E94381932C364
:10191E00E0917A01AE81EA0F3E2FA0917601BB27AE
:10192E000E9482150138E0E01E0718F0032F1127E0
:10193E00C5DFE0917601EA93E0917701EA93E885BD
:10194E00EA930E947B15EA93E1E0EA935A934A9355
:10195E00A7E013DDE0917601AE81EA0FEA93E09104
:10196E007701EA93E0917A01EA930E947B150E9437
:10197E008715E0917601EA93A09177010E947B157D
:10198E00EA0FEA933A93E0917B010E948715E0E813
:10199E00F0E0E017F10721F491DF0E943819EAC256
:1019AE00009376010E943819E5C2BA93AA931A934E
:1019BE00EC81EA93AC8155D0A981BA81ED91A983CE
:1019CE00BA831E2FE03019F0A12F8CDFF5CF1881CE
:1019DE0025960895AA930E943319AC81A53000F57F
:1019EE00ED81FE8105910E94911515910E94911530
:1019FE0025910E9491153591ED83FE83E885EA933A
:101A0E00E885EA930A932A93E1E0EA93EA85FB8557
:101A1E00FA93EA93AB85B1DC0A93A22FB8DE02C02B
:101A2E000E946A150E943A1929960895AA93EA818E
:101A3E00EA93EA81EA93E0917D01AA81EA2319F003
:101A4E00E091740102C0E0917501AE2F1DDCE881BA
:101A5E00EE0FE883E03011F4E1E0E883E8812396AD
:101A6E000895AA93A981BB2765DEE0937601A8812C
:101A7E00BB2772DEE093770122960895AA932B97E7
:101A8E000E943119AC89BB2755DEEC8BAA89BB2786
:101A9E0051DEEA8BAB89BB275FDEEB8BA989BB27B7
:101AAE005BDEE98BEA89E0937601E989E0937701C1
:101ABE00E1E0E887E989AB89EA1771F51C89AA8903
:101ACE001A1731F41A93EC89EA93A1E0AFDFC8C07C
:101ADE00AA891A1730F4EA89E11B0E2F41E050E073
:101AEE0006C0AA89E12FEA1B0E2F4FEF5FEF3B894D
:101AFE00E0E0EE830E94941538F41A933A933395EE
:101B0E00AA8594DFEF83F6CFEF81E887140FE02FDD
:101B1E000150E03061F7A4C0EA89AC89EA1739F5C3
:101B2E003B89A9893A1730F4E989E31B2E2FE1E0AE
:101B3E00F0E006C0A989E32FEA1B2E2FEFEFFFEF8F
:101B4E00ED87FE871C89E0E0EE830E94941530F449
:101B5E001A9313950E949C15EF83F7CFEF81E887B8
:101B6E00ED853E0FE22F2150E03061F779C0E0E0C5
:101B7E00EE830E94941508F073C01C893B89E1E046
:101B8E002E2F0E2FAA89BB27EC89F0E0AE1BBF0BC0
:101B9E00AD0155232AF40FEFFA010E946B18AF0125
:101BAE00FA01EE0FFF1FEF87F88BA989BB27EB8990
:101BBE00F0E0AE1BBF0BAD87BE87AE85AA233AF40D
:101BCE002FEFED85FE850E946B18ED87FE87ED8564
:101BDE00FE85EE0FFF1FEB87FC871A933A93A1E069
:101BEE0025DFE887E0E0E987EA87AD85BE854A17FD
:101BFE005B07BCF0100FEB85FC850E94A015A98534
:101C0E00BA854A175B072CF4320FAF85B8890E944C
:101C1E00A7151A930E949C15E887EA89E11751F7D8
:101C2E0018C0320FEF85F8890E94A015ED85FE854C
:101C3E00A985BA85EA17FB072CF4100FAB85BC8576
:101C4E000E94A7151A930E949C15E887E989E3174D
:101C5E0041F7EB89EF5FEB8BE989EF5FE98B89CF7A
:101C6E000E94381965960895BA93AA9323970E94F5
:101C7E003119ED85E887E0917C01EF83E0917401E5
:101C8E00EE83AA89BB27EF850E948215A989BB27FF
:101C9E00E8890E94AE15E8890E94B51571F0E885B5
:101CAE00E078F1F4AD85BE85EAE5F0E00E94BD1561
:101CBE001CF00E94C6150CF413C0332312F00E94C0
:101CCE00CB15AF81A23020F02230E0E03E070CF4BD
:101CDE0007C00E94CF1521F40A93A22FA1504EDD0A
:101CEE00E885E878E83891F0E885E078C9F4AD85C4
:101CFE00BE85A25FBE4F0E94D8153CF0AD85BE8555
:101D0E00A25FBE4F0E94DD150CF40AC00E94E215C0
:101D1E0038F00E94E91521F40A93A42FAF5F2EDD4F
:101D2E00AA89BB27EF85F0E0AE1BBF0B8D011123F7
:101D3E000AF445C0E885E278E23891F0E885E0786B
:101D4E0011F5AD85BE85A65ABF4F0E94D8153CF041
:101D5E00AD85BE85A65ABF4F0E94DD150CF413C08B
:101D6E00332312F00E94CB15AF81A23020F0223027
:101D7E00E0E03E070CF407C00E94CF1521F40A9351
:101D8E00A22FA150FBDCE885E478E43871F0E885F9
:101D9E00E078A9F4AD85BE85EEE0F1E00E94BD15B8
:101DAE001CF00E94C6150CF40AC00E94E21538F011
:101DBE000E94E91521F40A93A42FAF5FDFDCAA89F4
:101DCE00BB27E8890E948215A989BB27EF850E944F
:101DDE00AE15EF850E94B51581F0E885E078F1F437
:101DEE00EB85FC85AD85BE85AE17BF072CF0E9856A
:101DFE00FA85EA17FB070CF411C033237AF00E9420
:101E0E00CB15AF81A23050F0E02FEE5F0E94F2159D
:101E1E0029F4E02FEF5FEA93A22FB0DCE885E87893
:101E2E00E83871F0E885E078C1F4AD85BE85E8E666
:101E3E00F1E00E94BD151CF00E94C6150CF40DC0F9
:101E4E000E94E21550F0E02FEE5F0E94FA1529F481
:101E5E00E02FEF5FEA93A42F91DCAA89BB27E889D4
:101E6E00F0E0AE1BBF0B8D0111230AF450C0E885C4
:101E7E00E278E23871F0E885E07809F5AD85BE8547
:101E8E00E4EBF0E00E94BD151CF00E94C6150CF4A8
:101E9E0016C03323A2F00E94CB15AF81A23020F0E2
:101EAE000230E0E01E070CF40AC0E02FE2500E9460
:101EBE00F21529F4E02FE150EA93A22F5FDCE885BA
:101ECE00E478E43891F0E885E07809F5AD85BE85D3
:101EDE00AC54BF4F0E94D8153CF0AD85BE85AC54B6
:101EEE00BF4F0E94DD150CF412C00E94E21520F0C7
:101EFE000230E0E01E070CF40AC0E02FE2500E9410
:101F0E00FA1529F4E02FE150EA93A42F37DC0E9452
:101F1E00381963960895AA930E943319AF81BB278F
:101F2E00ED81F0E0AE1BBF0B05DC1E2FAF81BB2792
:101F3E00ED81F0E0AE0FBF1FFDDB0E2FAE81BB2794
:101F4E00EC81F0E0AE1BBF0B07DC3E2FAE81BB2752
:101F5E00EC81F0E0AE0FBF1FFFDB2E2F1A933A93EA
:101F6E000A93A32F8BDD1A932A930A93A22F86DD51
:101F7E000E943A1928960895AA930E943119A985AC
:101F8E00A03818F4A885A03420F00E9438190C94BB
:101F9E00A01250917C01E52F5150E03009F44BC056
:101FAE00EF81E03021F40E9438190C94A012EF81D9
:101FBE00E150EF83EF5F0E2FF0E0A5E0B0E0AE1B37
:101FCE00BF0BFD010E9487180E948C189F0110E024
:101FDE00AE81A03459F40E9402161A93A02F9BDFF3
:101FEE000E9402160A93A12F96DF0FC00E940216BE
:101FFE001A930A93EA85F0E0FA93EA93E0E0F0E0B0
:10200E00FA93EA93A0E0B0E02FDE1F5F33231AF4B9
:10201E00E12FF0E008C00150A12FBB27E02FF0E028
:10202E00AE1BBF0BFD01EE0FFF1F31962E0F3F1F94
:10203E00011770F6B0CF0E9438190C94A012AA9313
:10204E00EA81EA93EA81EA93EA81EA93AFE894DFC0
:10205E000C949414BA93AA931A930A93AA81BB81EF
:10206E0012960E94CE18309759F1AA81BB81149610
:10207E000E94CE188F01309761F00230E0E01E070B
:10208E0098F0F80131978F01AA81BB811496ED93D8
:10209E00FC93AA81BB811296ED91FD913196FE9330
:1020AE00EE933197AC81A083AA81BB810E94CE189A
:1020BE00FF232AF0ED91FD913196FE93EE9306C02B
:1020CE00AA81BB81EFEFFFEFED93FC93198108819D
:1020DE000C942914BA93AA9326970E94311910E0F2
:1020EE00AC85BD85E0E0F0E0ED93FC93EA89FB89D9
:1020FE003196EA8BFB8B3197E4912E2FE03009F469
:10210E0015C1E12FE03039F4253211F411E002C08F
:10211E000E9407160AC1E130A9F4253219F40E9473
:10212E00071602C112E040E000E02D3211F401E08A
:10213E00FCC02B3211F44BE2F8C0203211F440E215
:10214E00F4C002C0E23039F450E013E0203311F451
:10215E000068EBC003C0E33009F0E7C0203310F095
:10216E002A3308F007C0AAE05A9F502DE22FE05301
:10217E005E0FDBC0E22FE33649F40E940E16E889AB
:10218E00F989A481AA930E941416CEC0E33741F4B4
:10219E000E940E160E941A160E942B141E2F0AC0A1
:1021AE00E03761F40E940E160E941A160E94371430
:1021BE001E2F086002600F7730E034C0E43611F055
:1021CE00E93611F4046002C0E53731F4E0E4FCE0D6
:1021DE00EE83FF8315E00CC0E83511F4086003C0F0
:1021EE00E83709F0A1C0EAE4FCE0EE83FF8314E0D7
:1021FE0002FF14C00E940E160E942416AB85AA235D
:10220E003AF4EA85FB850E946B18EA87FB874DE25C
:10221E00403011F01F5F01C00B7F04C00E940E16EC
:10222E000E94241600FD11C0151778F407FF08C090
:10223E0002FF04C00B7F242F115001C020E301C008
:10224E0020E20E9407165150EFCF312F01FF17C029
:10225E003030A1F003FF06C0EE81FF812591EE83A1
:10226E00FF8305C0AE81BF812D91AE83BF830E94D7
:10227E000716503009F051503150EACF4BC020E3D1
:10228E00EE81FF810E94D718E887F987EE81FF81E2
:10229E003296EE83FF83E885F985AA85BB85AE1756
:1022AE00BF0750F02F5FA885B985EA85FB85EA1B2D
:1022BE00FB0BEA87FB87EFCF2A3328F003FF02C020
:1022CE00295F01C0295D04FD1AC0213320F4A885C1
:1022DE00B985119709F409C0531710F000FF01C01A
:1022EE0013C020E207FF0BC020E3006102FF07C00E
:1022FE000B7F4A930E941416503009F051500E94E1
:10230E000716503009F051503150A885B9851297F3
:10231E0008F0B5CF00FF08C0503031F05150E0E268
:10232E00EA930E941416F8CF10E0E0CEAC85BD857E
:10233E000E94CE180E94381964960895FF92F82EC6
:10234E0026970E9433190E942C16309719F4EFEF3E
:10235E00FFEF23C0DE0116960E9467188D010E94C2
:10236E002C16EE83FF83E0E0E887E987DE011A96FC
:10237E000E9467180E94CE18FA93EA931A930A9352
:10238E00E1E3F0E1FA93EA93DE011A96A3DE9F01F0
:10239E00AE81BF81E0E0EC93F9010E943A192A96D2
:1023AE00FF9008950E94EF187B816A81F981E88180
:1023BE0077FB770F67FD7160972F9E5781F078F04E
:1023CE00983190F4AA27BB27882708948795B7954C
:1023DE00A7959A95D1F7EA23FB23682305C0E894C5
:1023EE007727EE27FF2766276F77769508F46068C4
:1023FE0077F9A991B99189919991EA17FB07680725
:10240E00790797FB08950E94B5140E94D9110E9476
:10241E00E51821F40E9433160C94B314DEF70E94D3
:10242E0033160E9436160C94B3140E94EF1824979C
:10243E001A930A930E943D160E9426192CF0EFEF74
:10244E00FFEF6FE77FEF73C00E9442160E94EA18FB
:10245E00ADB7BEB711971F930F930E94A1160F91A0
:10246E001F910E9447160E943D16E3EFF4E065E3CC
:10247E007FE30E94471840F40E944C160E94641796
:10248E000E944716015010400E9442160E943616B6
:10249E007F936F93FF93EF930E944216A0E0B0E0FC
:1024AE0080E89FE30E946417AF91BF918F919F9137
:1024BE000E9402180E9447160E944C160E944E1649
:1024CE00A6E2B2E485E69FE30E945516EEE4F1E142
:1024DE0064E570E40E94F7140E943D160E94B41742
:1024EE007F936F93FF93EF930E945A16ADE4B1E181
:1024FE0084ED9FE30E945D17AF91BF918F919F91E5
:10250E000E9402187F936F93FF93EF93F8010E943E
:10251E0097180E942A17A8E1B2E781E39FE30E9471
:10252E00B417AF91BF918F919F910E94641719813B
:10253E0008812A9608950E94EF1828971A930A93F5
:10254E000E945F16E0E5FCEA6EEA72EC0E94471804
:10255E0018F40E946A1583C0EA85FB856C857D851B
:10256E000E941E1929F4E0E0F0E060E87FE377C0F6
:10257E000E945F16E8E1F2E761EB72E40E944718F1
:10258E0009F008F405C0EFEFFFEF6FE77FE767C0D4
:10259E000E945F16EBE3FAEA68EB7FE30E94B41742
:1025AE00EA87FB876C877D870E945F162CDF0E946F
:1025BE00F3168F010E945F160E9497180E942A1729
:1025CE000E94F714DF01CB010E9464160E94F714DB
:1025DE000E9447160E944C160E944E16ADE6BCE4B1
:1025EE008CE69DE30E94B417A6EAB3EE86EE90E465
:1025FE000E9464170E943D160E94B4170E9447164F
:10260E000E945A16A8E2BDE886EA91E40E94641779
:10261E00EA83FB836C837D830E944216AA81BB8171
:10262E008C819D810E946417A3EFB4E085EB9FE33C
:10263E000E94B4177F936F93FF93EF930E943D1602
:10264E000E945A160E945D17AF91BF918F919F9174
:10265E000E9402180E94EA18D8010E94B21619812F
:10266E0008812E9608950E94EF1824970E946916ED
:10267E000E941E1919F40E946A1545C0A885B985D5
:10268E008A859B850E94261994F40E946E160E94DC
:10269E001E1929F4E0E0F0E060E87FE334C0A8857D
:1026AE00B9858A859B850E94731645DF2CC00E94D2
:1026BE006E16DE010E94F3160E94D2180E94331687
:1026CE000E942A17DF01CB010E946E160E942C1960
:1026DE0019F00E946A1517C00E9469160E94BE1654
:1026EE00DF01CB010E94731626DFE887F9876A8720
:1026FE007B87E881E17019F40E94691604C00E947C
:10270E0069160E94BE162C9608950E94EF18249703
:10271E001A9310E00E947A16E3E8F9EF62E27EE384
:10272E000E94B4170E947F166EDE0E947A160E94D7
:10273E00F7140E947F160E9464160E94471809F033
:10274E0008F409C00E948416A0E0B0E080E09FE388
:10275E000E94891611E00E947A16E0E0F0E060E82F
:10276E007EE30E94471809F008F406C00E947A160C
:10277E000E9464160E948916103041F00E94841641
:10278E000E94BE16ED83FE836F8378870E948416A7
:10279E000E947A160E94B417E983FA836B837C83B6
:1027AE00A1EBB4EC86E292E40E945516EDE1F5EE53
:1027BE006DE272E40E94F7140E949016ACE4B3E549
:1027CE0084E091E40E9464170E947A160E94B41766
:1027DE007F936F93FF93EF93E981FA816B817C81F5
:1027EE00A1E1BDEE8EED9FE30E9464170E9490164C
:1027FE00AEE5BBE788EA9FE30E946417AF91BF91F5
:10280E008F919F910E9402181881299608950E9417
:10281E00B514EBEDFFE069EC7FE30E945D17DF017D
:10282E00CB0173DF0C94B314BA93AA93B981A88128
:10283E00109631F0FC81EB816A8161931197E9F773
:10284E00EB81FC8125960895BA93AA93A991B9912B
:10285E00EE27FF276D91662311F03196FBCF089579
:10286E00BA93AA93AA27BB27E991F9910590002064
:10287E0011F01196FBCFFD010895AA93E881F0E0C7
:10288E00EA5CF34FA491E9810E947718229608958D
:10289E00AA931A93E981E73011F0EA3019F41091F6
:1028AE00740109C0E93019F41091750104C0E830C3
:1028BE00A1F410918401E0917501E03049F01030DF
:1028CE0019F0EFEF188129C0EA81E095188125C033
:1028DE00103019F4E0E0188120C0EA8118811DC083
:1028EE00BA93AA93EA81E13021F4E881F981E49167
:1028FE0014C0E23029F4A881B9810E9401190DC0DB
:10290E00E33041F4A881B981E0918D01F0918E01FF
:10291E00099503C0A881B981EC9123960895AA93D5
:10292E00EB81E03029F4E881A981BA81EC9314C0DF
:10293E00E23031F4E881A981BA810E940D190CC0F0
:10294E00E33051F4E981FA81FA93EA93AA81E09196
:10295E008F01F09190010995249608950E94EF1829
:10296E000E94E0180895E0E2EA93EFE1EA93EB812A
:10297E00A6E0EA9FF0010E9497180E942A17DF0135
:10298E00CB010E94E606DF01CB010C948C130E9452
:10299E00B417A0E0B0E080E092E40E9464170E94B9
:1029AE00F116EA93EC81A6E0EA9FF0010E949718D7
:1029BE000E942A17DF01CB010E94E606DF01CB0140
:1029CE000C940E14AEE1EA9FF0010E9497180E943B
:1029DE002A17DF01CB010E94E606DF01CB01089525
:1029EE000E94F4180E945D170895E0E0EA93EA93BE
:1029FE000895FF27662777270E94EA180895919871
:102A0E00EFEFE4BBE881E5BB0E9442080C94460858
:102A1E00E695E695E695AE2F0C9481080E94A508E2
:102A2E000C949008EA0FFB1FEE83FF830895EC854C
:102A3E00EA93EF81F8853196EF83F8873197FA9311
:102A4E00EA93A0E00C949614EC85EA93EF81F88556
:102A5E003196EF83F8873197089566277727DF0140
:102A6E00CB010C9477145A93AA850C944F140A93A5
:102A7E000395E889EA935A9308950A930395A889D2
:102A8E000E94B708E42308955E2FEC85EA93AF8188
:102A9E00B885882799270E9477141E2E08950A93C9
:102AAE000395E889EA93EE85EA93E985FA853196EE
:102ABE00E987FA873197D1CFBA93AA93A881B981C2
:102ACE000E9422190895E0E0F0E060E070E00895C1
:102ADE000E943119E0917801F09179010895F80181
:102AEE000F5F1F4F04900895E0917801F0917901E6
:102AFE003196E4910895F0E0EA0FFB1F8F010895DF
:102B0E00EA93E0E0EA93E0E0F0E0FA93EA93A9E0DA
:102B1E000C94C409ED83FE830895AE81AF5FAE833E
:102B2E00A150E0917C01AE1708953A93AA850C94BA
:102B3E001D0DA985BA85EA0FFB1FE987FA8708954F
:102B4E00E985FA85EA1BFB0BE987FA870895F0E021
:102B5E00AE1BBF0B9D01A989BB270895F0E0EA0FBC
:102B6E00FB1FAF01E885E178E1380895EA1BFB0B06
:102B7E000F01DF01EB85FC85AE17BF070895E985D0
:102B8E00FA85E015F10508950A93A22F0C94C50B52
:102B9E000A93A22FA2500E947009AE2FEE81EA175F
:102BAE000895EB85FC85AE17BF070895E985FA8574
:102BBE00EA17FB0708950A93A42F0E94C50BAF8155
:102BCE00A23008950A93A42FAE5F0E947009AE2F13
:102BDE00EE81EA170895EA93A22F0E947009AE2F94
:102BEE00EE81EA170895EA93A42F0E947009AE2F82
:102BFE00EE81EA170895E985EA93E985EA93089547
:102C0E002A93AD85BE85EF85F88909950895E889E3
:102C1E00F9893497E88BF98B0895AD85BE85EF85DC
:102C2E00F88909950895A889B98914960E94CE1835
:102C3E00EE83FF83AE81BF810895A889B98914966A
:102C4E000E94CE18EA87FB870895DE011C960E942B
:102C5E0067180E94CE1808950E94DB180895A0E010
:102C6E00B0E080E89FE30E945D170895AE81BF81BA
:102C7E00888599850895EE81FF8168857985089507
:102C8E00EE83FF83688779870895F5DFEFCF0E9483
:102C9E00B417EA83FB836C837D8308950E94B41777
:102CAE00DF01CB010895EA81FB816C817D8108955E
:102CBE00AA85BB858C859D850895E0E0F0E060E0F7
:102CCE007FE30895E885F9856A857B850895EC8113
:102CDE00FD816E817F8108950E941C12AC81BD81A1
:102CEE008E819F81DBCFAD81BE818F8198850895C6
:102CFE00ED83FE836F837887F6CFED81FE816F8142
:102D0E00788508950E945D17ED83FE836F83788723
:102D1E000895A981BA818B819C810E94B417089570
:102D2E00109639F080ED97E00197F1F7A89511977D
:102D3E00C9F70895E991F9916991799177FB660F39
:102D4E00771F88277E57880B7D938C937EE7769529
:102D5E0067956EF00895E991F9916991799177FBF4
:102D6E00660F771F7A0F769567950EF00895309758
:102D7E006040704009F070580895552342F4503861
:102D8E0011F4E0FF04C03196691F791F6BF050E813
:102D9E00572711F45F93CFC05F3F31F0660F000CE1
:102DAE0057956795752F08955F9300200AF0CFC051
:102DBE00C8C050E8192E1522880F991F9527550F58
:102DCE00879550E8072E0522660F771F7527550F3A
:102DDE0067950895689401C0E8945F93F2DF7038A8
:102DEE0018F07F3F08F4A7C056E1571BAAF451957F
:102DFE0058300EF4593030F0EFEFFFEF6FEF7FE702
:102E0E0077F91AC077275523B9F0EE0FFF1F661F0B
:102E1E00771F5A95D1F710C07727583028F0EF2F2B
:102E2E00F62F672F5850F9CF552331F076956795C9
:102E3E00F795E7955A95D1F700200AF449D15F919D
:102E4E000895689401C0E894309760407040B1F0E6
:102E5E00002426F0772312F400943AD1172E7EE147
:102E6E00112032F07A95EE0FFF1F661F111CF9CF5D
:102E7E00EF2FF62F612D5F938ADF5F9108954F93A9
:102E8E00AF01FD01DA01AB01BC01CA01402D012CDD
:102E9E00142E4F910895EA0FFB1F681F0895E095B9
:102EAE00F0956095EF5FFF4F6F4F08955F9381DF51
:102EBE00903871F150E8152604C05F937ADF903890
:102ECE0039F1703821F1572F591B2BF112F4D7DF3E
:102EDE00FACF583118F0AA27BB278827583028F088
:102EEE00AB2FB82F88275850F9CF552329F0869548
:102EFE00B795A7955A95D9F7502D512572F0CBDF7E
:102F0E0038F46795F795E795739513F420C0B7DFFE
:102F1E003EDF5F910895D8F7FBCFEA1BFB0B680BE2
:102F2E0051F010F40094BBDF662392F3EE0FFF1FF7
:102F3E00661F7A95CBF7EE27FF27662777275F91D7
:102F4E000895EFEFFFEF6FE77FEF5F910895EFEFDB
:102F5E00FFEF6FE77FE75F9108955F932ADF703889
:102F6E0051F3903841F301240894791F23F41CF394
:102F7E0000203AF3ECCF0F921F932F933F934F9372
:102F8E00112722279927689FA0018F9F302D410D71
:102F9E00591F6B9F300D411D591F8E9F27D0BF9F0C
:102FAE0025D06A9F23D0BE9F1DD0AF9F1BD0AE9F52
:102FBE00110D291F391F491F591FE32FF42F652F9C
:102FCE00522F4F913F912F911F910F9066232AF010
:102FDE00550FEE1FFF1F661F02C073954BF2CDDE1D
:102FEE005F910895100D211D391F02C0200D311D56
:102FFE00491F591F08955F93DCDE703821F41120AC
:10300E000AF49FCFA4CF903809F495CF01240894E9
:10301E00970B1BF4D4F30020F3CF792F1F932F932C
:10302E003F934F93112411272227332744275527E7
:10303E0090E2AE17BF078607410730F0AE1BBF0BFD
:10304E00860B410B089401C08894551F221F331F15
:10305E00111CAA1FBB1F881F441F9A9551F7F90117
:10306E00612D4F913F912F911F91662332F0550F95
:10307E00EE1FFF1F661F7A9543F27FDE5F91089564
:10308E0099239AF0772342F0971748F029F4AE1758
:10309E00BF07860720F031F098948894089598948D
:1030AE00089408951894889408957723C2F7971773
:1030BE0098F3A9F7EA17FB07680788F399F3ECCFA3
:1030CE000024AF0DB01D0895F195E195F0400895DF
:1030DE00F09560957095E195FF4F6F4F7F4F089576
:1030EE00EE230E2EEA2F19F0EE0F0A94E9F708954B
:1030FE00EE230E2EEA2F19F0E6950A94E9F70895BD
:10310E00EE0FFF1FEE0FFF1F0895F595E795F5954E
:10311E00E7950895FE2FFF0FFF0B6F2F7F2F08955A
:10312E006F2F660F660B762F0895FA9FF02DEB9F8B
:10313E00F00DEA9FE02DF10D08957A9F702D6B9F93
:10314E00700DF89F700DE99F700D6A9F602D710DC7
:10315E00FB9F600D711DE89F600D711D8827FA9F02
:10316E00F02D610D781FEB9FF00D611D781FEA9F0A
:10317E00E02DF10D681F781F0895E894F7FF02C047
:10318E00A3DF6894EA23FB230EF49EDF0895ED91EE
:10319E00FC9111970895ED93FD936D937C93089593
:1031AE000590F491E02D0895E881F9816A817B8183
:1031BE000895A881B9818A819B810895E883F98356
:1031CE006A837B8308957A936A93FA93EA930895B8
:1031DE009A938A93BA93AA930895182E862F612DE7
:1031EE00192E972F712D1B2EBF2FF12D1A2EAE2FAC
:1031FE00E12D0895E199FECFFF93FFB7F894AEBB92
:10320E00BFBBE09AEDB3FFBFFF910895E19B02C0F3
:10321E00A895FCCF9FB7F894AEBBBFBBE09A8DB319
:10322E00E81719F0EDBBE29AE19A9FBF0895309727
:10323E0060407040089500240A160B06089500247D
:10324E000A160B06080609060895EA17FB07680713
:10325E00790708955A934A933A932A931A930A93A5
:10326E0008955D814C813B812A81198108810895E1
:00000001FF
