:020000000C945E
:1000020029010C9400000C948D010C9400000C94B6
:1000120000000C9400000C9400000C9400000C945E
:1000220000000C9400000C9400000C9400000C944E
:1000320000000C9400000C9400000C9400000C943E
:1000420000000C9400000C9400000C9400000C942E
:100052000000303132333435363738394142434487
:1000620045461027E80364000A0001000010000161
:1000720010000100309801006001A90157656C630E
:100082006F6D6520746F20746865206F6E6C696E89
:1000920065206C616220636C6173736573206475A3
:1000A2006520746F20436F726F6E6120646973659F
:1000B20061736500303030303030303030303030C5
:1000C200303030300030303030303030303030305E
:1000D200303030303030303030303030303030301E
:1000E2003030303030004D617279616D205361657E
:1000F20065646D65687200393632393337330045CD
:100102006E64206F662022537562526F7574696E39
:100112006533222E204E6F7720696E746572727578
:1001220070747320617265206163746976617465AD
:10013200640053706565642028302D3530722920A3
:100142003A0A0045450074696D652028302D393919
:100152007329203A0A0057656967742028302D39BF
:10016200394629203A0A0054656D70202832302D14
:1001720038304329203A0A0053706565643A2532C3
:10018200642054696D653A25326420576569677445
:100192003A2532642054656D703A253264000100BC
:1001A2002D4E414E00494E46000080C0030007001C
:1001B2007600380060017E000200ED027A00110034
:1001C2009801B6002100A901C7000200EB027C00E1
:1001D2001100CA01E8000800DB01F9003300E30165
:1001E200010111001602340111002702340103003B
:1001F2003802450111003B02340110004C02480153
:1002020010005C02480103006C02450110006F02FD
:10021200480111007F0258011100900258010300A9
:10022200A10245011100A40258011100B5026901A1
:100232001100C60269010300D70245011100DA026A
:1002420069010100EF02A0010200F302AC0100000B
:10025200F894EE27ECBBF1E0FBBFEBBFE5BF8DE00E
:10026200A2E0BB27ED938A95E9F780E094E0A0E64F
:10027200ED930197E9F7EEEAF1E085919591009708
:1002820061F0A591B59105901590BF01F00105901F
:100292000D920197E1F7FB01F0CFEFE5EDBFE4E04E
:1002A200EEBFC0E6D1E00C94560130D00E94D501D9
:1002B200A091ED02B091EE020E94E9010E940F02AC
:1002C20078940E9436020E943902A091EB02B0910A
:1002D200EC020E94E901F9CFFFCFEFEFEABBE0E0C9
:1002E200EBBBE0EFE7BBE0E0E8BBE1E0E4BBE0E072
:1002F200E5BBE1BBE2BB0895EBB7E068EBBFECE026
:10030200E5BFE0E0E4BFE0E8EABF0895E6DFA0E190
:100312000E948305F1DF08950A921A92FA926A9373
:100322007A938A939A93AA93BA93EA93FA93EFB73A
:10033200EA93E1E0E5BB5524E4E05E1618F50E947D
:10034200B205E4E04E16E0F40E94BA05B9F40E9448
:10035200CD05A63421F00E94CD050E945205E52D5F
:10036200A4E5B0E0F0E00E945906AE0FBF1FE42DF5
:10037200F0E0EA0FFB1F7490E1E06E2E4394E1CFB0
:100382005394DACFE0E0E5BBEFEFE8BBE991EFBFD2
:10039200F991E991B991A99199918991799169918B
:1003A200F9901990099018950E944405AAECB1E0C1
:1003B2000E947205E0E0EA93A1E00E943305ABEDF2
:1003C200B1E00E947205ACEDB5E00E9436060895D8
:1003D200BA93AA930E9444055524A881B9810E9428
:1003E2003D03A52DB0E0EA17FB07B0F0A4E6B0E0AC
:1003F2000E94DB059A928A92E52DF0E0AA81BB81E8
:10040200EA0FFB1FFA93EA93A0E10E945603D4017C
:100412000E9472055394E1CF0C9442055524E4E006
:100422005E1610F50E94B205E4E04E16D8F40E9462
:10043200BA05B1F40E9444050E94CD050E945205FE
:10044200A4E6B0E00E9436060E94CD05A63441F42F
:10045200ACEBB2E00E943606A3EEB1E0B9DF08953C
:100462004394E2CF5394DBCFD9CFEFEFE8BB0895AB
:1004720066240E944405A6E1B2E00E947205BB24F4
:10048200E6E4E71511F0662009F406C06624EB2DB8
:100492000E94DF05BE2E25C0E6E4E71519F4E2E36B
:1004A200EB1508F011C066240E944405A7E2B2E0F1
:1004B2000E947205A8E3B2E00E94E705ABE3B2E056
:1004C2000E94EC05BB240DC0E6E4E71541F4E0E030
:1004D200BE1618F0E2E3EB1508F401C001C001C03A
:1004E20001C0CECF0E94F105ACE4B2E00E947205D9
:1004F200AA24E6E4E71511F0662009F406C0662492
:10050200EA2D0E94DF05AE2E25C0E6E4E71519F4B8
:10051200E3E6EA1508F011C066240E944405ACE542
:10052200B2E00E947205ACE6B2E00E94E705AFE6D7
:10053200B2E00E94EC05AA240DC0E6E4E71541F4FE
:10054200E0E0AE1618F0E3E6EA1508F401C001C0D7
:1005520001C001C0CECF0E94F105AFE7B2E00E9418
:100562007205DD24E6E4E71511F0662009F406C001
:100572006624ED2D0E94DF05DE2E25C0E6E4E71598
:1005820019F4E3E6ED1508F011C066240E94440553
:10059200A0E9B2E00E947205A1EAB2E00E94E7057A
:1005A200A4EAB2E00E94EC05DD240DC0E6E4E71502
:1005B20041F4E0E0DE1618F0E3E6ED1508F401C0C0
:1005C20001C001C001C0CECF0E94F105A5EBB2E08F
:1005D2000E947205CC24E6E4E71511F0662009F4C6
:1005E20006C06624EC2D0E94DF05CE2E29C0E6E46B
:1005F200E71539F4E4E1CE1618F0E0E5EC1508F45D
:1006020001C011C066240E944405A6ECB2E00E941B
:100612007205A7EDB2E00E94E705AAEDB2E00E94E2
:10062200EC05CC240DC0E6E4E71541F4E4E1CE1676
:1006320018F0E0E5EC1508F401C001C001C001C0EA
:10064200CACFE091EB02F091EC02FA93EA93EAE767
:10065200F1E0FA93EA93EB2D0E94F605EA2D0E944F
:10066200F605ED2D0E94F605EC2D0E94F60580E1BF
:100672000E94DF040C94DD04BA93AA93A991B99164
:10068200EE27FF276D91662311F03196FBCF089577
:10069200BA93AA93AA27BB27E991F9910590002062
:1006A20011F01196FBCFFD010895AA937991E9917A
:1006B200F991A991B991CD01772351F07A95619180
:1006C2006D936623C9F7772319F07A956D93FBCF63
:1006D200FC010895BA93AA931A930A93AA81BB8143
:1006E20012960E945E06309759F1AA81BB81149638
:1006F2000E945E068F01309761F00230E0E01E0733
:1007020098F0F80131978F01AA81BB811496ED937D
:10071200FC93AA81BB811296ED91FD913196FE93D5
:10072200EE933197AC81A083AA81BB810E945E06C1
:10073200FF232AF0ED91FD913196FE93EE9306C0D0
:10074200AA81BB81EFEFFFEFED93FC931981088142
:1007520025960895BA93AA9326970E946B0610E0F5
:10076200AC85BD85E0E0F0E0ED93FC93EA89FB897E
:100772003196EA8BFB8B3197E4912E2FE03009F40E
:1007820015C1E12FE03039F4253211F411E002C035
:100792000E94FC050AC1E130A9F4253219F40E9435
:1007A200FC0502C112E040E000E02D3211F401E04C
:1007B200FCC02B3211F44BE2F8C0203211F440E2BB
:1007C200F4C002C0E23039F450E013E0203311F4F7
:1007D2000068EBC003C0E33009F0E7C0203310F03B
:1007E2002A3308F007C0AAE05A9F502DE22FE053A7
:1007F2005E0FDBC0E22FE33649F40E940306E8896C
:10080200F989A481AA930E940906CEC0E33741F474
:100812000E9403060E940F060E943D031E2F0AC07B
:10082200E03761F40E9403060E940F060E9449030A
:100832001E2F086002600F7730E034C0E43611F0FA
:10084200E93611F4046002C0E53731F4E4E6F0E081
:10085200EE83FF8315E00CC0E83511F4086003C095
:10086200E83709F0A1C0EEE6F0E0EE83FF8314E082
:1008720002FF14C00E9403060E941906AB85AA2338
:100882003AF4EA85FB850E944406EA87FB874DE23B
:10089200403011F01F5F01C00B7F04C00E940306AD
:1008A2000E94190600FD11C0151778F407FF08C051
:1008B20002FF04C00B7F242F115001C020E301C0AE
:1008C20020E20E94FC055150EFCF312F01FF17C0EB
:1008D2003030A1F003FF06C0EE81FF812591EE8347
:1008E200FF8305C0AE81BF812D91AE83BF830E947D
:1008F200FC05503009F051503150EACF4BC020E393
:10090200EE81FF810E946206E887F987EE81FF810E
:100912003296EE83FF83E885F985AA85BB85AE17FB
:10092200BF0750F02F5FA885B985EA85FB85EA1BD2
:10093200FB0BEA87FB87EFCF2A3328F003FF02C0C5
:10094200295F01C0295D04FD1AC0213320F4A88566
:10095200B985119709F409C0531710F000FF01C0BF
:1009620013C020E207FF0BC020E3006102FF07C0B3
:100972000B7F4A930E940906503009F051500E94A1
:10098200FC05503009F051503150A885B9851297B5
:1009920008F0B5CF00FF08C0503031F05150E0E20E
:1009A200EA930E940906F8CF10E0E0CEAC85BD853F
:1009B2000E945E060E94720664960895FF92F82EC7
:1009C20026970E946D060E942106309719F4EFEFD8
:1009D200FFEF23C0DE0116960E9440068D010E94A1
:1009E2002106EE83FF83E0E0E887E987DE011A96BD
:1009F2000E9440060E945E06FA93EA931A930A93B3
:100A0200EBE6F3E0FA93EA93DE011A96A3DE9F0186
:100A1200AE81BF81E0E0EC93F9010E9474062A9650
:100A2200FF900895AA93EBB3EF70AE2FE881E07FB9
:100A3200EA2BEBBB8DE08A95F1F7DA9A8DE08A9585
:100A4200F1F7DA988DE08A95F1F789C0AA93A88127
:100A5200E9DFE881E295E883A881E4DF85E88A9509
:100A6200F1F77DC0AA93E881F0E0ED50FD4FE081FF
:100A7200A981AE0FEBDFE981E093F702E881E09311
:100A8200F80222960895A2E00E942806ACE0DEDF7A
:100A9200A1E00E942806E0E0E093F802E093F7026A
:100AA2000895AA93A881AA3031F0E091F902A091A9
:100AB200F702AE1760F0E0E0EA93A091F802AF5FB0
:100AC200A093F802CFDFA881AA3009F448C0E091D0
:100AD200F702EF5FE093F702D89AA881B7DFD898C0
:100AE2003EC0BA93AA931A93A981BA81ED91A983C0
:100AF200BA831E2FE03019F0A12FD3DFF5CF188172
:100B020023960895AA93EAB3E06FEABBD29AD09AE9
:100B1200D19ADA98D898D998E881E093F902E05806
:100B2200E093F502E881E054E093F602A4E1B0E03C
:100B32000E9436060E942E060E942E060E942E0653
:100B4200A0E270DF88EC90E00197F1F7A8E27EDF87
:100B5200A4E07CDFA5E87ADFA6E078DF94DF2196C7
:100B62000895E52DEC5FA1E00E944806E8BB44240D
:100B7200089516B2E42DA1E0B0E00E945006A12D26
:100B8200B0E0EA23FB23BF01E42DA1E0B0E00E9424
:100B92005006E617F7070895E52DA4E5B0E0F0E06A
:100BA2000E945906AE0FBF1FE42DF0E0EA0FFB1FB3
:100BB200A49108950E9436060C944405AAE0EA0224
:100BC200F001AE2FE72DE053EA0F08950E9472055F
:100BD200A0E9B1E0EFCF0E947205E0E37E2E089516
:100BE2006624E0E37E2E0C944405FF2766277727D0
:100BF2000E94660608952A93AD85BE85EF85F88921
:100C020009950895E889F9893497E88BF98B089555
:100C1200AD85BE85EF85F88909950895A889B989BA
:100C220014960E945E06EE83FF83AE81BF81089513
:100C3200A889B98914960E945E06EA87FB870895FF
:100C4200DE011C960E9440060E945E0608950E94E4
:100C52002705A3E0B0E00C943606A0E30E9413053A
:100C620088EC90E00197F1F70895109639F080ED45
:100C720097E00197F1F7A8951197C9F70895002415
:100C8200AF0DB01D0895F195E195F0400895EE2362
:100C92000E2EEA2F19F0EE0F0A94E9F70895EE23CB
:100CA2000E2EFD0121F0EE0FFF1F0A94E1F70895C9
:100CB200EE0FFF1FEE0FFF1F0895ED91FC911197AC
:100CC20008950590F491E02D08957A936A93FA932A
:100CD200EA9308955A934A933A932A931A930A935A
:100CE20008955D814C813B812A8119810881089593
:00000001FF
